:020000040800F2
:10000000480500209D010008290A00080909000888
:10001000250A0008E1050008BB18000800000000E0
:10002000000000000000000000000000450C000877
:100030001706000800000000B90A00085D0E00085D
:10004000B7010008B7010008B7010008B7010008B0
:10005000B7010008B701000831060008B701000821
:10006000B7010008B7010008B7010008B701000890
:10007000B7010008B7010008B7010008B701000880
:10008000B7010008B7010008B7010008B701000870
:10009000B7010008B7010008B7010008B701000860
:1000A000B7010008B7010008B7010008B701000850
:1000B000B7010008B7010008B7010008B701000840
:1000C000B7010008B7010008B7010008B701000830
:1000D000B70100084912000835130008C9140008C8
:1000E000B7010008B7010008B7010008B701000810
:1000F000B7010008B7010008B7010008B701000800
:10010000B7010008B7010008B7010008B7010008EF
:1001100075110008B7010008A10F00084D10000874
:10012000B7010008B7010008B7010008B7010008CF
:10013000B7010008B7010008B7010008B7010008BF
:10014000B7010008B7010008B7010008B7010008AF
:10015000B7010008B7010008B70100083915000809
:10016000B7010008B7010008B7010008B70100088F
:10017000B7010008B7010008B7010008B70100087F
:10018000B7010008B7010008DFF80CD000F0E0F973
:10019000004800472D1C00084805002006488047FD
:1001A00006480047FEE7FEE7FEE7FEE7FEE7FEE75C
:1001B000FEE7FEE7FEE7FEE7CD0E00088901000836
:1001C00040EA01039B0703D009E008C9121F08C0D9
:1001D000042AFAD203E011F8013B00F8013B521E59
:1001E000F9D27047D2B201E000F8012B491EFBD2D0
:1001F00070470022F6E710B513460A460446194632
:10020000FFF7F0FF204610BD2DE9FE4F81EA030401
:1002100004F0004421F0004100944FF0000B23F063
:10022000004350EA01045ED052EA03045BD0C3F3FA
:100230000A54C1F30A552C44A4F2F3340194A0FBF0
:100240000254C1F3130141F48011C3F3130343F4C7
:10025000801301FB024400FB034E840A970A44EA20
:10026000815447EA8357A4FB076802958D0A05FB72
:1002700007854FEA932C04FB0C542705029D4FEA97
:10028000065847EA1637B5EB08056EEB070C870EE4
:10029000920E47EA811742EA8312A7FB0201B6EBEE
:1002A0000B0164EB00042B0D43EA0C335E1844EBA6
:1002B0001C50DA465146E7FB0201C5F313044FEA2E
:1002C0000B3343EA14534FEA0432019C43EA06031A
:1002D000A4F10C040294009CCDE900B400F0EAF80B
:1002E00003B0BDE8F08F00200146F9E72DE9F04D9D
:1002F00081EA030404F0004B21F0004514464FF05E
:10030000000A23F0004150EA050220D054EA01021D
:100310001DD0C5F30A570246C5F31303C1F31300FA
:10032000C1F30A5640F4801543F48013A7EB060886
:10033000101BD64608F2FD3873EB050002D308F116
:10034000010801E092185B41B8F1000F03DA0020C8
:100350000146BDE8F08D00204FF48011064684462A
:100360000EE0171B73EB050705D3121B63EB0503A8
:1003700006434CEA010C49084FEA300092185B41F1
:1003800050EA0107EDD152EA030012D082EA0400DC
:1003900083EA0501084305D0101BAB4106D20122B8
:1003A000002306E000224FF0004302E06FF001025C
:1003B00053101AEB06004CEB085110EB0A0041EB0E
:1003C0000B01BDE8F04D00F066B800F0004230F0DF
:1003D00000400AD0C10D01F56071C0F3160042EA79
:1003E0000151C20840071143704700200146704781
:1003F00001F0004330B421F0004150EA010206D080
:100400000A0DA2F56072C1F31301002A02DC30BCB0
:1004100000207047440F44EAC104C100E01830BC1A
:1004200000EBC250AFF300800029A8BF7047401C0A
:10043000490008BF20F00100704710B4B0FA80FCFA
:1004400000FA0CF050EA010404BF10BC704749B137
:10045000CCF1200421FA04F411FA0CF118BF0121A7
:1004600021430843A3EB0C01CB1D4FEA00614FEA87
:10047000102042BF002010BC704700EBC350104456
:100480000029A4BF10BC7047401C490008BF20F0E1
:10049000010010BC704710B5141E73F1000408DA97
:1004A000401C41F1000192185B411A4301D120F038
:1004B000010010BD2DE9F04D92469B4611B1B1FAF5
:1004C00081F202E0B0FA80F22032904600F052F859
:1004D00004460F4640EA0A0041EA0B0153465A46D9
:1004E000084313D0114653EA010019D0C8F1400265
:1004F000504600F04EF805460E46504659464246D4
:1005000000F038F8084305D0012004E020463946C1
:10051000BDE8F08D0020054346EAE0762C433743E2
:100520000A986305E40AA0EB08000022FD0A44EAE9
:1005300047540A3002D500200146E9E701051019A9
:100540006941DDE9084500196941BDE8F04DA2E7C0
:10055000064C074D06E0E06840F0010394E8070010
:1005600098471034AC42F6D3FFF712FE141E000871
:10057000341E0008202A04DB203A00FA02F1002091
:1005800070479140C2F1200320FA03F319439040D1
:100590007047202A04DB203A21FA02F0002170473C
:1005A00021FA02F3D040C2F12002914008431946DB
:1005B0007047000010B500240BE0074B33F81420FF
:1005C000064B33F8143019B2631CD8B200F0DEF9D0
:1005D000641C052CF1DB10BD1C0000201200002063
:1005E00000BFFEE721B1026842F00102026003E0B1
:1005F000026822F00102026070470146486880B23A
:100600007047014600200A6802F400220AB1012066
:1006100000E000207047704701B504490098086069
:1006200000BF024800680028FBD108BD4800002038
:1006300000B52DED088B83B0012000F097F800285D
:1006400072D001213A4800F052F9D8B1012000F0EF
:1006500087F80121374800F017FD0021042000F041
:10066000F3FA012000F07CF800208DF808000C203F
:100670008DF80900012001908DF80A0001A800F012
:1006800081F84EE000212B4800F0FEFC2A4890ED56
:10069000000AB8EE400A10EE100AFFF796FE41EC91
:1006A0001B0B9FED260B53EC102BFFF7ADFD41EC20
:1006B0001A0B9FED240B53EC102BFFF7A5FD41EC1B
:1006C000190B9FED220B53EC102BFFF70FFE41ECA3
:1006D000180BFFF78DFE1F490860084690ED000AD1
:1006E000DFED1D0A20EE200ABCEEC00A10EE100A53
:1006F0001A4908800020104908600021042000F0F9
:10070000A3FA012000F02CF800208DF80800082042
:100710008DF80900012001908DF80A0001A800F071
:1007200031F8012000F01CF803B0BDEC088B00BDCF
:100730000010024000140040040000202D431CEB78
:10074000E2361A3F00000000004075400000000043
:10075000000000403000002000007A443A000020F1
:100760000149086070470000143C01400146002028
:10077000034A12680A400AB1012000E000207047D5
:10078000143C0140002123498279002A3AD00A46CC
:10079000126803689A430B461A600A1D12680368C0
:1007A0009A430B1D1A60027911440A6803681A43C0
:1007B0000A60184A0832126803689A43154B0833D6
:1007C0001A601A1D126803689A43124B0C331A60A0
:1007D0004279102A0ED11A1F126803681A430D4B72
:1007E00008331A601A1D126803681A43094B0C3348
:1007F0001A600DE00749427911440A6803681A43F8
:100800000A6005E0027911440A6803689A430A60A5
:1008100070470000003C0140F0B50A46002100236B
:10082000002400BF3DE0012505FA01F3156805EA43
:1008300003049C4234D105684F000326BE40B543F3
:10084000056015794E00B540066835430560157999
:10085000012D02D01579022D16D185684F0003268F
:10086000BE40B543856055794E00B5408668354336
:100870008560456801268E40B54345604568967998
:100880008E40B6B235434560C5684F000326BE4072
:10089000B543C560D5794E00B540C6683543C560DF
:1008A000491C1029BFD3F0BDF0B5002300244D072B
:1008B000ED0E02FA05F3CE1000F1200555F8265092
:1008C0004E07F70E0F26BE40B543CF1000F12006AD
:1008D00046F82750CE1000F1200555F8265045EA7D
:1008E0000304CE1000F1200545F82640F0BD024675
:1008F000002013690B400BB1012000E0002070477D
:10090000418370470183704700BFFEE70146002224
:10091000022004E00B5C13449AB2431CD8B2CB789B
:100920009B1C8342F6DCD3439AB2D0B270470000DE
:1009300070B54CF2503604E0761E002E01DA1148F4
:1009400070BD01F04BF90028F6D00F48FFF7DEFF2D
:100950000D49C978891C0C4A515C884202D06FF459
:100960000060EDE7084804791C2C06D1407906495F
:10097000897940EA01252846E2E700BF00BF002050
:10098000DEE7000000F8FFFF35010020FEB5064657
:100990000C461546002C00DA0024B4F57A7F01DD00
:1009A0004FF47A7455208DF801008DF800008DF811
:1009B000026007208DF8030001208DF80400E0B2EA
:1009C0008DF80500200A8DF80600E8B28DF80700C2
:1009D00028128DF808006846FFF798FF8DF8090087
:1009E0000A21684601F070F9FEBD7CB50446552029
:1009F0008DF801008DF800008DF8024003208DF87D
:100A000003001C208DF804006846FFF77FFF8DF877
:100A100005000621684601F057F9FFF789FF0546F2
:100A200028467CBD00BFFEE77047000070B500217E
:100A300000230F22C4781CB3174C246804F4E0642C
:100A4000C4F5E064C4F30721C1F10404E3B20A4130
:100A500044789C40E1B28478144021430C07210E75
:100A60000E4C05786155047804F01F050124AC4054
:100A700005786D11AD0005F1E025C5F8004109E0EC
:100A8000047804F01F050124AC40054D067876116A
:100A900045F8264070BD00000CED00E000E400E0E9
:100AA00080E100E002490143024A11607047000002
:100AB0000000FA050CED00E07047000029B1064A7D
:100AC00012680243044B1A6004E0034A126882432E
:100AD000014B1A60704700003038024029B1064AC5
:100AE00012680243044B1A6004E0034A126882430E
:100AF000014B1A60704700004038024029B1064A95
:100B000012680243044B1A6004E0034A12688243ED
:100B1000014B1A60704700002038024029B1064A94
:100B200012680243044B1A6004E0034A12688243CD
:100B3000014B1A60704700004438024029B1064A50
:100B400012680243044B1A6004E0034A12688243AD
:100B5000014B1A607047000024380240F0B50021B4
:100B600000220024022500260223324F3F6807F0AE
:100B70000C0121B1042905D0082937D105E02E4FF9
:100B8000076036E02D4F076033E02A4F3F1F3F6874
:100B9000C7F38056274F3F1F3F6807F03F036EB1F2
:100BA000264FB7FBF3F7DFF88CC0ACF1040CDCF890
:100BB00000C0CCF3881C07FB0CF40CE01E4FB7FB05
:100BC000F3F7DFF870C0ACF1040CDCF800C0CCF334
:100BD000881C07FB0CF4174F3F1F3F68C7F3014702
:100BE0007F1C7D00B4FBF5F7076002E0124F076041
:100BF00000BF00BF0F4F3F6807F0F0010909104F19
:100C00007A5C0768D74047600A4F3F6807F4E051B5
:100C1000890A0B4F7A5C4768D7408760054F3F6869
:100C200007F46041490B064F7A5C4768D740C760BC
:100C3000F0BD0000083802400024F40040787D0137
:100C40004C0000207047000030B500228B071C0FBD
:100C50000F2303FA04F20B4B8C1053F82430934308
:100C6000084C8D1044F8253023468C1053F824305E
:100C70008C07240F00FA04F42343024C8D1044F82F
:100C8000253030BD0838014010B5EE210D4800F088
:100C900004FE0A20FFF7C0FCEE210A4800F0FDFD2B
:100CA0000A20FFF7B9FC08480178064800F0F5FD76
:100CB0000A20FFF7B1FC044800880112014800F047
:100CC000ECFD10BD004800403A0000202DE9F04145
:100CD000044600260025C4F1FF072046FFF785FEE5
:100CE0000646B5B239460E4800F0D7FD0A20FFF798
:100CF00093FC39460A4800F0D0FD0A20FFF78CFC2F
:100D0000E9B2074800F0C9FD0A20FFF785FC291267
:100D1000034800F0C2FD0A20FFF77EFCBDE8F08129
:100D2000004800401CB501210220FFF7C7FE01204A
:100D30008DF8040003208DF8050000208DF80600D2
:100D40004FF44070009069460848FFF765FD69461A
:100D50000648FFF761FD4FF480710448FFF7D0FDAE
:100D60004FF400710148FFF7CBFD1CBD00040240A9
:100D70000CB50020019000903448006840F48030A9
:100D80003249086000BF3148006800F4003000902C
:100D90000198401C0190009818B90198B0F5A04F37
:100DA000F1D12A48006800F4003010B10120009011
:100DB00001E0002000900098012846D123484030EF
:100DC000006840F0805021494031086020480068A8
:100DD00040F440401E4908601C48083000681B4928
:100DE000083108600846006840F400400860084682
:100DF000006840F4A05008601648091F0860081FEA
:100E0000006840F08070091F086000BF0F4800684C
:100E100000F000700028F9D040F205600E4908602B
:100E20000A480830006820F00300084908310860CB
:100E30000846006840F00200086000BF0348083020
:100E4000006800F00C000828F8D10CBD0038024002
:100E50000070004019544007003C024000B500F00B
:100E60007DF900BD30B515480068154AB0FBF2F1B8
:100E7000481EB0F1807F01D301201BE0481E4FF0D7
:100E8000E022506150170F22002807DA13071D0EC9
:100E90000C4B00F00F04241F1D5503E013071C0E1C
:100EA000094B1C5400BF00204FF0E0229061072046
:100EB0001061002008B100BFFEE730BD5C000020DB
:100EC000A086010018ED00E000E400E010B5154830
:100ED000006840F47000134908601348006840F04F
:100EE00001001149086000200F49083108600E48D0
:100EF00000680E4908400C4908600D48091D08604B
:100F0000081F006820F48020091F0860002006499F
:100F10000C310860FFF72CFF4FF000600149803969
:100F2000086010BD88ED00E000380240FFFFF6FECB
:100F3000103000241FB501211020FFF7CFFD5320F2
:100F4000ADF804004FF47A7002900020ADF806006E
:100F5000ADF80C0001A9114800F0BEF84FF4C060D4
:100F6000FFF7A0FD36208DF8000001208DF801006C
:100F70008DF802008DF803006846FFF757FD012148
:100F8000064800F081F801221146044800F099F863
:100F90000121024800F072F81FBD0000001000405F
:100FA00010B501210C4800F07BF898B101210A48E6
:100FB00000F067F80121084800F060F80748006871
:100FC000401C0649086008460068B0F5FA6F01D178
:100FD0000020086010BD000000100040000000204C
:100FE0001FB501212020FFF779FD5320ADF8040043
:100FF000642002900020ADF80600ADF80C0001A9B5
:10100000114800F069F84FF4C060FFF74BFD37203E
:101010008DF8000001208DF8010004208DF80200F9
:1010200001208DF803006846FFF700FD0021064807
:1010300000F02AF801221146034800F042F801218D
:10104000014800F01BF81FBD0014004010B501213D
:10105000084800F025F860B10121064800F011F8B9
:101060000121044800F00AF803480068401C0249C6
:10107000086010BD0014004004000020CA43028232
:101080007047CA430282704721B1028842F00102D0
:10109000028004E002884FF6FE731A400280704717
:1010A00030B50246002000230024158A05EA01031A
:1010B000958905EA010413B10CB1012000E000207C
:1010C00030BD1AB183890B43838102E083898B434E
:1010D00083817047C163704700220288184B984291
:1010E0000ED0184B98420BD0B0F1804F08D0164B61
:1010F000984205D0154B984202D0154B984204D126
:101100004FF68F731A404B881A43124B984207D000
:10111000114B984204D04FF6FF431A400B891A43F3
:1011200002804B68C3620B880385054B984202D04E
:10113000044B984201D18B7A038601238382704746
:10114000000001400004014000040040000800408D
:10115000000C0040001000400014004004480068EB
:1011600020B103480068401E014908607047000034
:101170004800002010B540F22551024800F0CEFA98
:1011800010BD0000004C004000B587B001210846AA
:10119000FFF794FC01211020FFF7C0FC4FF4C06062
:1011A000059002208DF8180000208DF81A00032009
:1011B0008DF8190001208DF81B0005A92048FFF7C4
:1011C0002BFB072209211E48FFF76EFB07220A218D
:1011D0001B48FFF769FB1B4800F028FA684600F03F
:1011E00060FB4FF4E13000900020ADF80400ADF852
:1011F0000600ADF808000C20ADF80A000020ADF89C
:101200000C0069460F4800F0D9FA25208DF810002F
:1012100001208DF8110003208DF8120001208DF8B7
:10122000130004A8FFF702FC012240F225510548F3
:1012300000F09EFA0121034800F0ECF907B000BD70
:10124000000002400010014010B540F22551314825
:1012500000F064FA00285BD02E4800F019FBC4B2FD
:101260002D480078C8B9552C10D12C480078401C66
:101270002A4908700846007802280ED1002008701C
:101280000120254908702649087006E000202249FF
:10129000087023490870214908701F480078B8B3C6
:1012A00020481F49097844541D480078032813D169
:1012B0001C481B490978405C1B49087008460078A7
:1012C000032803DB08460078072805DD03201649BC
:1012D000087000201049087011480078401C10491F
:1012E00008700846017810480078C01C81420FD170
:1012F0000E48007848B901200C4908700848027867
:10130000921C08490A48FEF75BFF0020024908705A
:1013100010BD000000100140360000203700002002
:101320003900002025010020380000203500002071
:101330003501002010B540F225512A4800F0EEF9A1
:1013400000284CD0274800F0A3FAC4B22648007801
:10135000D0B9592C11D125480078401C2349087078
:101360000846007802280FD10020087001201E498D
:10137000087000201E49087010BD00201A4908702E
:101380001B490870194908701748007870B119484E
:1013900017490978445416490978481CC11700EBCD
:1013A0005171C910A0EBC101114A117010480078A9
:1013B000A8B90D48007890B100200B4908700D487D
:1013C00000780C49497840EA01200B490880094817
:1013D00080780849C97840EA01200849088000BFA0
:1013E000CAE70000004400404500002046000020FD
:1013F000470000203E0000203A0000203C00002072
:1014000000B587B001210220FFF758FB01218804B5
:10141000FFF764FB01214805FFF750FB4FF44060E4
:10142000059002208DF8180000208DF81A00032086
:101430008DF8190001208DF81B0005A92048FFF741
:10144000EBF907220A211E48FFF72EFA07220B218B
:101450001B48FFF729FA1B4800F0E8F8684600F03F
:1014600020FA4FF4E13000900020ADF80400ADF810
:101470000600ADF808000C20ADF80A000020ADF819
:101480000C0069460F4800F099F927208DF81000EC
:1014900000208DF811008DF8120001208DF8130046
:1014A00004A8FFF7C3FA012240F22551054800F0D5
:1014B0005FF90121034800F0ADF807B000BD00005E
:1014C000000402400048004010B540F22551154884
:1014D00000F024F928B314490968144A1268881ADC
:1014E000002801DB014600E041420A2902DD00201C
:1014F0000F4908700C4800680C490860094800F062
:10150000C7F9C4B20B480A4909784454084800781E
:10151000401C0749087008460078192801D10020AE
:10152000087010BD00480040000000202C00002082
:101530002A0000207000002010B540F224413048FD
:1015400000F0ECF800285AD02D4800882C48001DE7
:1015500000882C48FFF755F840BB00212948FFF7C9
:1015600041F82848FFF749F8C0F13C0026490860D7
:101570003C202449091D0860081F006840F4002031
:10158000091F086001211F48FFF72CF81E4890ED45
:10159000000AB8EE400ADFED1D0AB4EE600AF1EE73
:1015A00010FA2CD11A4800F035FA28E0002115482D
:1015B000FFF718F81348FFF720F8C0F13C00124974
:1015C00008603C200F49091D0860081F006820F4CE
:1015D0000020091F086001210A48FFF703F80A48A4
:1015E00090ED000AB8EE400ADFED080AB4EE600A9A
:1015F000F1EE10FA03D106483C3000F00BFA10BDB2
:101600000014014028640240080000200000044249
:101610008900002021B1828942F40052828104E0D5
:1016200082894DF6FF731A408281704710B50446D7
:101630003248844208D101211020FFF77FFA0021AF
:101640001020FFF77BFA57E02D48844209D1012191
:101650004804FFF753FA00214FF40030FFF74EFA29
:101660004AE02848844209D101218804FFF746FA5C
:1016700000214FF48020FFF741FA3DE022488442E8
:1016800009D10121C804FFF739FA00214FF40020E5
:10169000FFF734FA30E01D48844209D101210805E2
:1016A000FFF72CFA00214FF48010FFF727FA23E010
:1016B0001748844208D101212020FFF73FFA00217A
:1016C0002020FFF73BFA17E01248844209D101219C
:1016D0008807FFF713FA00214FF08040FFF70EFA5A
:1016E0000AE00D48844207D101214005FFF706FAC0
:1016F00000216005FFF702FA10BD00000010014054
:101700000044004000480040004C004000500040B1
:101710000014014000780040007C004070B5024693
:10172000002400230025002040F66A16B14200D1B3
:1017300000BFC1F3421501F01F03012606FA03F3AF
:10174000012D02D19689334006E0022D02D1168A7E
:10175000334001E0968A33400C12012606FA04F465
:101760001688344013B10CB1012000E0002070BD98
:10177000F0B50346002400260025002040F66A1735
:10178000B94200D100BF1846C1F3421401F01F0650
:10179000012707FA06F5012C01D10C3004E0022CD8
:1017A00001D1103000E014301AB107682F430760F0
:1017B00002E00768AF430760F0BD00002DE9FF4776
:1017C00005460E460024A14600BFA046B08900B1E0
:1017D00000BF2C8A24F44054F08804432C82AC8946
:1017E00041F20C608443B088318908437189084311
:1017F0000443AC81AC8A24F44074B0890443AC82C5
:101800006846FFF7ABF92048854202D01F48854261
:1018100002D1DDF80C9001E0DDF80890A88900F411
:10182000004040B109EBC90000EB091031684900E4
:10183000B0FBF1F707E009EBC90000EB09103168D4
:101840008900B0FBF1F76420B7FBF0F00401200938
:10185000642101FB1078A88900F4004040B13220D7
:1018600000EBC800B0FBF1F000F00700044308E013
:10187000322000EB08106421B0FBF1F000F00F0003
:1018800004432C81BDE8FF87001001400014014093
:1018900001468888C0F308007047C1F308028280BF
:1018A00070474FF41651016000218180C180018191
:1018B0000C21418100218181704700BFFEE702E0D9
:1018C00008C8121F08C1002AFAD1704770470020CB
:1018D00001E001C1121F002AFBD1704710B5017849
:1018E000DD292CD14178DD2929D1C17D222926D1BC
:1018F000017E222923D10021002200BF022209E01B
:10190000845C531CC35C44EA03230D4C24F811305F
:10191000491C121D0529F3DB0021042209E0845C27
:10192000531CC35C44EA0323064C24F81130491CC1
:10193000121D0529F3DB837D034C237000BF10BD0E
:10194000120000201C0000201000002010B504210F
:101950000948FEF7D7FF08210748FEF7D1FF44F6F4
:1019600020610648FFF7B6FB4CF25030FEF754FEFC
:1019700000F03EF810BD00000008024000040040E6
:1019800010B508480078112802D1FFF7DFFF08E002
:1019900004480078222802D100F02EF901E000F07E
:1019A00027F810BD100000201CB501210420FFF70E
:1019B00085F801208DF8040003208DF80500002033
:1019C0008DF806000C20009069460848FEF724FFB9
:1019D00069460648FEF720FF04210448FEF790FF01
:1019E00008210248FEF78CFF1CBD000000080240E1
:1019F00010B504210548FEF783FF08210348FEF7D0
:101A00007FFF00210248FFF765FB10BD0008024080
:101A10000004004010B504462078552802D1204625
:101A200000F002F810BD000000214278512A32D1A6
:101A30008278C37842EA032212B200EE102AB8EE8E
:101A4000C00ADFED600A20EE200A10EE102A5E4B7D
:101A50001A600279437942EA032212B200EE102A98
:101A6000B8EEC00ADFED570A20EE200A10EE102A69
:101A7000554B5A608279C37942EA032212B200EED2
:101A8000102AB8EEC00ADFED4F0A20EE200A10EE51
:101A9000102A4D4B9A604D4A1288521C825C522A81
:101AA00044D14A4A1288921C835C484A1288D21C4C
:101AB000825C43EA022212B200EE102AB8EEC00A9B
:101AC000DFED430A20EE200A10EE102A3E4BDA60CA
:101AD0003E4A1288121D835C3C4A1288521D825C69
:101AE00043EA022212B200EE102AB8EEC00ADFED7D
:101AF000380A20EE200A10EE102A334B1A61334ABE
:101B00001288921D835C314A1288D21D825C43EA9E
:101B1000022212B200EE102AB8EEC00ADFED2C0A43
:101B200020EE200A10EE102A274B5A61294A12880B
:101B3000521C825C532A44D1264A1288921C835C30
:101B4000244A1288D21C825C43EA022212B200EEBE
:101B5000102AB8EEC00ADFED200A20EE200A10EEAF
:101B6000102A194B9A611B4A1288121D835C194A6C
:101B70001288521D825C43EA022212B200EE102A41
:101B8000B8EEC00ADFED140A20EE200A10EE102A8B
:101B90000D4BDA610F4A1288921D835C0D4A128840
:101BA000D21D825C43EA022212B200EE102AB8EE85
:101BB000C00ADFED090A20EE200A10EE102A024BBF
:101BC0001A6270470AD7A33B010100200C000020D5
:101BD00023DB793D0E00002076FFB33B05480078FB
:101BE000012804D10020034908700120704700201B
:101BF000FCE700003500002010B504210948FEF77D
:101C00007FFE08210748FEF77DFE44F62061064866
:101C1000FFF760FA4CF25030FEF7FEFCFFF7E8FEEB
:101C200010BD0000000802400004004019211D48BA
:101C3000FEF7DFFAFFF716F900201B490860FFF7EF
:101C400079F9FFF7DDFBFFF79FFAFFF7ADFEFFF72E
:101C5000C7F900F075F8FFF765F822E01248006850
:101C60000A21B0FBF1F201FB120010B90D48FFF799
:101C700035FE0D4800681421B0FBF1F201FB1200A3
:101C800028B9FEF797FC00F0ABF800F00FF8064813
:101C900000686421B0FBF1F201FB120008B9FFF704
:101CA0006FFEDBE7700000200000002010B501246B
:101CB00004E02046FFF70AF8601CC4B2052CF8DDEA
:101CC000FEF7E2FF10BD000070B504460D464FF46C
:101CD00000711548FEF716FE4FF480711248FEF7AA
:101CE0000FFE0A20FEF798FC0BE000BF0F480088AB
:101CF00000F040000028F9D014F8011B0B48FFF752
:101D0000CCFD2800A5F10101CDB2EED10A20FEF7ED
:101D100083FC4FF400710448FEF7F2FD4FF480712C
:101D20000148FEF7EFFD70BD0004024000100140C5
:101D3000322000BF0100A0F10100FBD1704700007C
:101D400000B585B001211020FEF7B8FE01218803FF
:101D5000FEF7E4FE0220039001208DF8100003201E
:101D60008DF8110000208DF8120003A91B48FEF722
:101D700053FD0120039000208DF8100003208DF802
:101D8000110003A91548FEF747FD00210420FEF7C6
:101D90005BFF0120FEF7E4FC00208DF8080008201E
:101DA0008DF80900012001908DF80A0001A8FEF7C6
:101DB000E9FC06208DF8000001208DF801000220CA
:101DC0008DF8020001208DF803006846FEF72EFE14
:101DD00002210248FEF794FD05B000BD001002404C
:101DE00010B502210948FEF78BFDFFF7A1FF022184
:101DF0000648FEF787FDFFF79BFF02210348FEF729
:101E00007FFD01200249087010BD00000010024053
:101E100034000020341E0008000000207000000084
:101E2000BE180008A41E000870000020D80400009E
:101E3000CE180008000000000000000000000000B4
:101E40000B0016000000F401F40183008D00D401A2
:101E5000140014001400140014000000000000001E
:101E60000000000000000000000000000200000070
:101E70000000000000000000000000000000000062
:101E80000000000001020304010203040607080920
:101E9000007A030A000000000000000001020304B1
:041EA0000607080920
:040000050800018965
:00000001FF
