:020000040800F2
:10000000700500209D010008ED0B0008CD0A0008D6
:10001000E90B0008E10500084B2100080000000082
:10002000000000000000000000000000090E0008B1
:10003000F9070008000000007D0C0008A11000086E
:10004000B7010008B7010008B7010008B7010008B0
:10005000B7010008B701000815080008B70100083B
:10006000B7010008B7010008B7010008B701000890
:10007000B7010008B7010008B7010008B701000880
:10008000B7010008B7010008B7010008B701000870
:10009000B7010008B7010008B7010008B701000860
:1000A000B7010008B7010008B7010008B701000850
:1000B000B7010008B7010008B7010008B701000840
:1000C000B7010008B7010008B7010008B701000830
:1000D000B7010008D5180008811A0008151C00088F
:1000E000B7010008B7010008B7010008B701000810
:1000F000B7010008B7010008B7010008B701000800
:10010000B7010008B7010008B7010008B7010008EF
:100110006D170008B7010008E51200088D130008EC
:10012000B7010008B7010008B7010008B7010008CF
:10013000B7010008B7010008B7010008B7010008BF
:10014000B7010008B7010008B7010008B7010008AF
:10015000B7010008B7010008B7010008B51D000885
:10016000B7010008B7010008B7010008B70100088F
:10017000B7010008B7010008B7010008B70100087F
:10018000B7010008B7010008DFF80CD000F0E0F973
:10019000004800475D25000870050020064880479C
:1001A00006480047FEE7FEE7FEE7FEE7FEE7FEE75C
:1001B000FEE7FEE7FEE7FEE71111000889010008EF
:1001C00040EA01039B0703D009E008C9121F08C0D9
:1001D000042AFAD203E011F8013B00F8013B521E59
:1001E000F9D27047D2B201E000F8012B491EFBD2D0
:1001F00070470022F6E710B513460A460446194632
:10020000FFF7F0FF204610BD2DE9FE4F81EA030401
:1002100004F0004421F0004100944FF0000B23F063
:10022000004350EA01045ED052EA03045BD0C3F3FA
:100230000A54C1F30A552C44A4F2F3340194A0FBF0
:100240000254C1F3130141F48011C3F3130343F4C7
:10025000801301FB024400FB034E840A970A44EA20
:10026000815447EA8357A4FB076802958D0A05FB72
:1002700007854FEA932C04FB0C542705029D4FEA97
:10028000065847EA1637B5EB08056EEB070C870EE4
:10029000920E47EA811742EA8312A7FB0201B6EBEE
:1002A0000B0164EB00042B0D43EA0C335E1844EBA6
:1002B0001C50DA465146E7FB0201C5F313044FEA2E
:1002C0000B3343EA14534FEA0432019C43EA06031A
:1002D000A4F10C040294009CCDE900B400F0EAF80B
:1002E00003B0BDE8F08F00200146F9E72DE9F04D9D
:1002F00081EA030404F0004B21F0004514464FF05E
:10030000000A23F0004150EA050220D054EA01021D
:100310001DD0C5F30A570246C5F31303C1F31300FA
:10032000C1F30A5640F4801543F48013A7EB060886
:10033000101BD64608F2FD3873EB050002D308F116
:10034000010801E092185B41B8F1000F03DA0020C8
:100350000146BDE8F08D00204FF48011064684462A
:100360000EE0171B73EB050705D3121B63EB0503A8
:1003700006434CEA010C49084FEA300092185B41F1
:1003800050EA0107EDD152EA030012D082EA0400DC
:1003900083EA0501084305D0101BAB4106D20122B8
:1003A000002306E000224FF0004302E06FF001025C
:1003B00053101AEB06004CEB085110EB0A0041EB0E
:1003C0000B01BDE8F04D00F066B800F0004230F0DF
:1003D00000400AD0C10D01F56071C0F3160042EA79
:1003E0000151C20840071143704700200146704781
:1003F00001F0004330B421F0004150EA010206D080
:100400000A0DA2F56072C1F31301002A02DC30BCB0
:1004100000207047440F44EAC104C100E01830BC1A
:1004200000EBC250AFF300800029A8BF7047401C0A
:10043000490008BF20F00100704710B4B0FA80FCFA
:1004400000FA0CF050EA010404BF10BC704749B137
:10045000CCF1200421FA04F411FA0CF118BF0121A7
:1004600021430843A3EB0C01CB1D4FEA00614FEA87
:10047000102042BF002010BC704700EBC350104456
:100480000029A4BF10BC7047401C490008BF20F0E1
:10049000010010BC704710B5141E73F1000408DA97
:1004A000401C41F1000192185B411A4301D120F038
:1004B000010010BD2DE9F04D92469B4611B1B1FAF5
:1004C00081F202E0B0FA80F22032904600F052F859
:1004D00004460F4640EA0A0041EA0B0153465A46D9
:1004E000084313D0114653EA010019D0C8F1400265
:1004F000504600F04EF805460E46504659464246D4
:1005000000F038F8084305D0012004E020463946C1
:10051000BDE8F08D0020054346EAE0762C433743E2
:100520000A986305E40AA0EB08000022FD0A44EAE9
:1005300047540A3002D500200146E9E701051019A9
:100540006941DDE9084500196941BDE8F04DA2E7C0
:10055000064C074D06E0E06840F0010394E8070010
:1005600098471034AC42F6D3FFF712FEE02700089C
:1005700000280008202A04DB203A00FA02F10020BB
:1005800070479140C2F1200320FA03F319439040D1
:100590007047202A04DB203A21FA02F0002170473C
:1005A00021FA02F3D040C2F12002914008431946DB
:1005B0007047000010B500240BE0074B33F81420FF
:1005C000064B33F8143019B2631CD8B200F0C0FAED
:1005D000641C052CF1DB10BD360100202C0100202D
:1005E00000BFFEE721B1026842F00102026003E0B1
:1005F000026822F00102026070470000016821F0E9
:10060000010101600021016041608160C160016100
:10061000212141614A49884204D13D21484A103A8A
:1006200091608CE046491831884205D14FF47461DD
:10063000434A103A916082E041493031884205D105
:100640004FF474113E4A103A916078E03C494831C9
:10065000884205D14FF07461394A103A91606EE0DA
:1006600037496031884204D13649354A103AD16061
:1006700065E033497831884204D13349304A103A31
:10068000D1605CE02E499031884204D12F492C4A38
:10069000103AD16053E02A49A831884205D14FF081
:1006A0003D51274A103AD16049E02949884204D196
:1006B0003D21274A083A116041E025491831884216
:1006C00005D14FF47461224A083A116037E020499D
:1006D0003031884205D14FF474111D4A083A116037
:1006E0002DE01B494831884205D14FF07461184A0A
:1006F000083A116023E016496031884204D111495B
:10070000134A121F11601AE011497831884204D14E
:100710000D490F4A121F116011E00D4990318842B6
:1007200004D10A490A4A121F116008E00849A83199
:10073000884204D14FF03D51054A121F11607047A5
:10074000106002403D000020400F002000003D20CE
:100750001064024021B1026842F48022026003E08A
:10076000026822F480220260704722B1036843F4D9
:100770000023036003E0036823F4002303600161A6
:1007800070470146486880B27047014600200A68F9
:1007900002F400220AB1012000E0002070470000AE
:1007A00010B500220268134B1A40CC680B68234333
:1007B0004C6923438C692343CC6923430C6A23434C
:1007C0004C6A23438C6A23434C6B23438C6B234337
:1007D0001A430260426922F00702D1E90B34234335
:1007E0001A4342610B6943604B6883608B68C36046
:1007F00010BD00003F801CF07047000001B50449A7
:100800000098086000BF024800680028FBD108BDBE
:100810003C00002000B52DED088B83B0012000F0D6
:1008200087F8002865D00121344800F042F9D8B19A
:10083000012000F077F80121314800F0D1FD0021BE
:10084000042000F0E3FA012000F06CF800208DF89D
:1008500008000C208DF80900012001908DF80A0095
:1008600001A800F071F841E00021254800F0B8FD32
:10087000244890ED000AB8EE400A10EE100AFFF787
:10088000A4FD41EC1B0B9FED200B53EC102BFFF74D
:10089000BBFC41EC1A0B9FED1E0B53EC102BFFF72A
:1008A000B3FC41EC190B9FED1C0B53EC102BFFF725
:1008B0001DFD41EC180BFFF79BFD19490860002056
:1008C000104908600021042000F0A0FA012000F087
:1008D00029F800208DF8080008208DF80900012073
:1008E00001908DF80A0001A800F02EF8012000F018
:1008F00019F803B0BDEC088B00BD000000100240E9
:1009000000140040040000202D431CEBE2361A3F87
:1009100000000000004075400000000000000040A2
:10092000240000200149086070470000143C014089
:1009300001460020034A12680A400AB1012000E083
:1009400000207047143C0140002123498279002A8D
:100950003AD00A46126803689A430B461A600A1D89
:10096000126803689A430B1D1A60027911440A68E1
:1009700003681A430A60184A0832126803689A43E7
:10098000154B08331A601A1D126803689A43124BFC
:100990000C331A604279102A0ED11A1F12680368AC
:1009A0001A430D4B08331A601A1D126803681A4364
:1009B000094B0C331A600DE00749427911440A686B
:1009C00003681A430A6005E0027911440A68036863
:1009D0009A430A6070470000003C0140F0B50A46A7
:1009E00000210023002400BF3DE0012505FA01F3AA
:1009F000156805EA03049C4234D105684F000326BC
:100A0000BE40B543056015794E00B54006683543D4
:100A100005601579012D02D01579022D16D1856852
:100A20004F000326BE40B543856055794E00B54062
:100A3000866835438560456801268E40B54345602C
:100A4000456896798E40B6B235434560C5684F001B
:100A50000326BE40B543C560D5794E00B540C66893
:100A60003543C560491C1029BFD3F0BDF0B5002344
:100A700000244D07ED0E02FA05F3CE1000F120051B
:100A800055F826504E07F70E0F26BE40B543CF103F
:100A900000F1200646F82750CE1000F1200555F849
:100AA000265045EA0304CE1000F1200545F8264003
:100AB000F0BD0246002013690B400BB1012000E09D
:100AC00000207047418370470183704700BFFEE7F5
:100AD00001460022022004E00B5C13449AB2431C3E
:100AE000D8B2CB789B1C8342F6DCD3439AB2D0B207
:100AF0007047000070B54CF2503604E0761E002EB0
:100B000001DA114870BD01F001FD0028F6D00F4850
:100B1000FFF7DEFF0D49C978891C0C4A515C8842F9
:100B200002D06FF40060EDE7084804791C2C06D170
:100B300040790649897940EA01252846E2E700BF65
:100B400000BF0020DEE7000000F8FFFF500100209A
:100B5000FEB506460C461546002C00DA0024B4F516
:100B60007A7F01DD4FF47A7455208DF801008DF8FD
:100B700000008DF8026007208DF8030001208DF839
:100B80000400E0B28DF80500200A8DF80600E8B2F6
:100B90008DF8070028128DF808006846FFF798FFC7
:100BA0008DF809000A21684601F096FDFEBD7CB56E
:100BB000044655208DF801008DF800008DF80240A4
:100BC00003208DF803001C208DF804006846FFF711
:100BD0007FFF8DF805000621684601F07DFDFFF7D7
:100BE00089FF054628467CBD00BFFEE77047000030
:100BF00070B5002100230F22C4781CB3174C246861
:100C000004F4E064C4F5E064C4F30721C1F1040412
:100C1000E3B20A4144789C40E1B284781440214315
:100C20000C07210E0E4C05786155047804F01F0561
:100C30000124AC4005786D11AD0005F1E025C5F843
:100C4000004109E0047804F01F050124AC40054D83
:100C50000678761145F8264070BD00000CED00E0E6
:100C600000E400E080E100E002490143024A116033
:100C7000704700000000FA050CED00E0704700002E
:100C800029B1064A12680243044B1A6004E0034A81
:100C900012688243014B1A607047000030380240EE
:100CA00029B1064A12680243044B1A6004E0034A61
:100CB00012688243014B1A607047000040380240BE
:100CC00029B1064A12680243044B1A6004E0034A41
:100CD00012688243014B1A607047000020380240BE
:100CE00029B1064A12680243044B1A6004E0034A21
:100CF00012688243014B1A6070470000443802407A
:100D000029B1064A12680243044B1A6004E0034A00
:100D100012688243014B1A60704700002438024079
:100D2000F0B5002100220024022500260223324FC4
:100D30003F6807F00C0121B1042905D0082937D1FB
:100D400005E02E4F076036E02D4F076033E02A4F55
:100D50003F1F3F68C7F38056274F3F1F3F6807F08C
:100D60003F036EB1264FB7FBF3F7DFF88CC0ACF151
:100D7000040CDCF800C0CCF3881C07FB0CF40CE07E
:100D80001E4FB7FBF3F7DFF870C0ACF1040CDCF8D2
:100D900000C0CCF3881C07FB0CF4174F3F1F3F68C3
:100DA000C7F301477F1C7D00B4FBF5F7076002E045
:100DB000124F076000BF00BF0F4F3F6807F0F00100
:100DC0000909104F7A5C0768D74047600A4F3F68AF
:100DD00007F4E051890A0B4F7A5C4768D740876077
:100DE000054F3F6807F46041490B064F7A5C47683E
:100DF000D740C760F0BD0000083802400024F4006E
:100E000040787D01430000207047000030B500228B
:100E10008B071C0F0F2303FA04F20B4B8C1053F8B3
:100E200024309343084C8D1044F8253023468C1011
:100E300053F824308C07240F00FA04F42343024CA7
:100E40008D1044F8253030BD0838014010B52348D6
:100E50000088642825DD214800884FF6FF7188420C
:100E60001FDAEE211E4801F060F90A20FFF7C6FCE8
:100E7000EE211B4801F059F90A20FFF7BFFC194881
:100E80000178174801F051F90A20FFF7B7FC15481F
:100E900000880112124801F048F90A20FFF7AEFC61
:100EA0001BE0EE210E4801F040F90A20FFF7A6FCF6
:100EB000EE210B4801F039F90A20FFF79FFCFF21D2
:100EC000074801F032F90A20FFF798FCFF21044897
:100ED00001F02BF90A20FFF791FC10BD3000002033
:100EE000004800402E0000202DE9F0410446002774
:100EF00000254FF6FF70061B2046FFF758FE0746F9
:100F0000BDB2F1B20C4801F010F90A20FFF776FCEF
:100F10003112094801F009F90A20FFF76FFCE9B224
:100F2000054801F002F90A20FFF768FC291202487F
:100F300001F0FBF8BDE8F0810048004010B5002446
:100F400000BF09E00648015D064801F0EEF80A20FE
:100F5000FFF754FC601CC4B20A2CF3DB10BD000088
:100F600021010020004800401CB501210220FFF7AC
:100F700087FE01208DF8040003208DF80500002075
:100F80008DF806004FF44070009069460848FFF75E
:100F900025FD69460648FFF721FD4FF4807104489E
:100FA000FFF790FD4FF400710148FFF78BFD1CBD6A
:100FB000000402400CB50020019000903448006805
:100FC00040F480303249086000BF3148006800F4C6
:100FD000003000900198401C0190009818B90198C9
:100FE000B0F5A04FF1D12A48006800F4003010B1EC
:100FF0000120009001E0002000900098012846D1D7
:1010000023484030006840F080502149403108605A
:101010002048006840F440401E4908601C480830E1
:1010200000681B49083108600846006840F4004029
:1010300008600846006840F4A05008601648091F80
:101040000860081F006840F08070091F086000BF3A
:101050000F48006800F000700028F9D040F20560E9
:101060000E4908600A480830006820F0030008496B
:10107000083108600846006840F00200086000BFC0
:1010800003480830006800F00C000828F8D10CBDB7
:10109000003802400070004019544007003C0240F4
:1010A00000B500F057FB00BD30B515480068154A83
:1010B000B0FBF2F1481EB0F1807F01D301201BE0AC
:1010C000481E4FF0E022506150170F22002807DA27
:1010D00013071D0E0C4B00F00F04241F1D5503E0D9
:1010E00013071C0E094B1C5400BF00204FF0E022D8
:1010F000906107201061002008B100BFFEE730BDFD
:1011000054000020A086010018ED00E000E400E09B
:1011100010B51548006840F4700013490860134882
:10112000006840F001001149086000200F490831B3
:1011300008600E4800680E4908400C4908600D48D8
:10114000091D0860081F006820F48020091F08603E
:10115000002006490C310860FFF72CFF4FF00060BB
:1011600001498039086010BD88ED00E00038024078
:10117000FFFFF6FE1030002430B58BB004460D465C
:1011800001210220FFF78CFD01210220FFF778FDED
:10119000022200213648FFF769FC0222012134486F
:1011A000FFF764FC022204213148FFF75FFC0222B2
:1011B00005212F48FFF75AFC3320099002208DF8B3
:1011C000280003208DF8290000208DF82A00012036
:1011D0008DF82B0009A92648FFF700FCADF8185040
:1011E0000020ADF81A000794ADF8200006A92148A8
:1011F00000F06EFA6020ADF804000120ADF80600A2
:101200000020ADF8100040F2DC50039001A919480D
:1012100000F00CF90821174800F046F940F2DC50C4
:10122000039001A9134800F049F90821114800F082
:1012300097F90020039001A90E4800F09FF90821BA
:101240000C4800F0EBF940F2DC50039001A909488A
:1012500000F0EEF90821074800F026FA01210548C0
:1012600000F0ACF80121034800F0BAF80BB030BD33
:1012700000040240000400401FB501211020FFF7C8
:101280000FFD5320ADF804004FF47A700290002057
:10129000ADF80600ADF80C0001A9114800F018FAED
:1012A0004FF4C060FFF7E0FC36208DF8000001200D
:1012B0008DF801008DF802008DF803006846FFF7F5
:1012C00097FC0121064800F08BF8012211460448E2
:1012D00000F0A3F80121024800F07CF81FBD0000D7
:1012E0000010004010B501210C4800F085F898B1BD
:1012F00001210A4800F071F80121084800F06AF85D
:1013000007480068401C0649086008460068B0F5B8
:10131000FA6F01D10020086010BD000000100040ED
:10132000000000201FB501212020FFF7B9FC532049
:10133000ADF80400642002900020ADF80600ADF87E
:101340000C0001A9104800F0C3F94FF4C060FFF78A
:101350008BFC37208DF8000001208DF801008DF8FE
:1013600002008DF803006846FFF742FC00210648A2
:1013700000F036F801221146034800F04EF8012132
:10138000014800F027F81FBD0014004010B50121EE
:10139000084800F031F860B10121064800F01DF85E
:1013A0000121044800F016F803480068401C024977
:1013B000086010BD001400400400002021B1028824
:1013C00042F08002028004E002884FF67F731A40E8
:1013D00002807047CA4302827047CA430282704744
:1013E00021B1028842F00102028004E002884FF637
:1013F000FE731A400280704730B502460020002379
:101400000024158A05EA0103958905EA010413B150
:101410000CB1012000E0002030BD1AB183890B43DC
:10142000838102E083898B438381704770B50024F8
:1014300000220023058C4FF6FE7635400584028C91
:101440008388048B4FF68F752C40B51E2C400D8879
:101450002C43751E2A408D892A434D882A43104DFE
:10146000A84202D00F4DA84213D14FF6F7752A407B
:10147000CD892A434FF6FB752A408D882A434FF6C3
:10148000FF652B404FF6FF552B400D8A2B434D8AAD
:101490002B43838004838D684563028470BD000004
:1014A00000000140000401400A460021018B4FF674
:1014B000F7731940114301837047000070B5002491
:1014C00000220023058C4FF6EF7635400584028C10
:1014D0008388048B48F6FF752C404FF6FF452C405F
:1014E0000D884FF6FF7606EA05252C434FF6DF758B
:1014F0002A408D8906EA05152A434D8806EA051516
:101500002A43154DA84202D0144DA8421DD14FF6D2
:101510007F752A40CD894FF6FF7606EA05152A43E6
:101520004FF6BF752A408D8806EA05152A434FF607
:10153000FF352B404FF2FF752B400D8A06EA8505DB
:101540002B434D8A06EA85052B43838004838D68EF
:101550008563028470BD000000000140000401406A
:101560000A460021018B4FF2FF7319404FF6FF73BB
:1015700003EA0223194301837047000070B5002479
:1015800000220023058C4FF6FF6635400584028C4F
:101590008388848B4FF68F752C404FF6FC752C405A
:1015A0000D882C434FF6FF552A408D894FF6FF7664
:1015B00006EA05252A434D8806EA05252A43154DE6
:1015C000A84202D0144DA8421DD14FF2FF752A4007
:1015D000CD894FF6FF7606EA05252A434FF6FF35FB
:1015E0002A408D8806EA05252A434EF6FF752B40D2
:1015F0004DF6FF752B400D8A06EA05152B434D8AE3
:1016000006EA05152B43838084838D68C5630284B5
:1016100070BD000000000140000401400A460021A6
:10162000818B4FF6F7731940114381837047000097
:1016300070B5002200230024058C4EF6FF7635405D
:101640000584038C8488828B48F6FF752A404FF608
:10165000FF452A400D884FF6FF7606EA05252A4306
:101660004DF6FF752B408D8906EA05352B434D88D5
:1016700006EA05352B430A4DA84202D0094DA8427F
:1016800008D14BF6FF752C400D8A4FF6FF7606EA1F
:1016900085152C43848082838D680564038470BD26
:1016A00000000140000401400A460021818B4FF2F6
:1016B000FF7319404FF6FF7303EA02231943818336
:1016C00070474163704781637047C1637047000092
:1016D00000220288184B98420ED0184B98420BD02B
:1016E000B0F1804F08D0164B984205D0154B984268
:1016F00002D0154B984204D14FF68F731A404B8895
:101700001A43124B984207D0114B984204D04FF61F
:10171000FF431A400B891A4302804B68C3620B884F
:101720000385054B984202D0044B984201D18B7A35
:1017300003860123838270470000014000040140BA
:101740000004004000080040000C00400010004071
:10175000001400400448006820B103480068401E9F
:1017600001490860704700003C00002010B540F2BD
:101770002551234800F01AFC002840D0204800F0F2
:10178000CFFCC4B21F480078D8B9AA2C10D11E488B
:101790000078401C1C49087008460078022810D1C7
:1017A000002008700120174908701849087008E0E7
:1017B00000201449087002201449087000201249C2
:1017C00008701048007868B11148104909784454ED
:1017D0000E480078401C0A2190FBF1F201FB120038
:1017E0000A4908700948007848B90648007830B1BD
:1017F000002004490870AA2005490870487010BDEF
:10180000004C004040000020410000204200002029
:101810006001002000B587B001210846FFF730FACB
:1018200001211020FFF75CFA4FF4C0600590022000
:101830008DF8180000208DF81A0003208DF819008B
:1018400001208DF81B0005A92048FFF7C7F80722E3
:1018500009211E48FFF70AF907220A211B48FFF752
:1018600005F91B4800F02AFB684600F062FC4FF4C3
:10187000E13000900020ADF80400ADF80600ADF8AE
:1018800008000C20ADF80A000020ADF80C006946F5
:101890000F4800F0DBFB25208DF8100001208DF8AB
:1018A000110003208DF8120001208DF8130004A808
:1018B000FFF79EF9012240F22551054800F0A0FBF8
:1018C0000121034800F0E4FA07B000BD0000024027
:1018D0000010014010B540F22551314800F066FB80
:1018E00000285BD02E4800F01BFCC4B22D480078C5
:1018F000C8B9552C10D12C480078401C2A490870D2
:101900000846007802280ED10020087001202549E1
:1019100008702649087006E0002022490870234913
:101920000870214908701F480078B8B320481F4943
:10193000097844541D480078032813D11C481B49DA
:101940000978405C1B49087008460078032803DBCF
:1019500008460078072805DD032016490870002096
:101960001049087011480078401C1049087008465A
:10197000017810480078C01C81420FD10E480078D1
:1019800048B901200C49087008480278921C08499F
:101990000A48FEF715FC00200249087010BD00003F
:1019A000001001402A0000202B0000202D00002004
:1019B000400100202C0000202900002050010020C0
:1019C00000B587B001210846FFF75AF90121480404
:1019D000FFF766F90C20059002208DF81800002012
:1019E0008DF81A0003208DF8190001208DF81B00D6
:1019F00005A92148FEF7F2FF072202211E48FFF742
:101A000035F8072203211C48FFF730F81B4800F087
:101A100055FA684600F08DFB4FF4E130009000204D
:101A2000ADF80400ADF80600ADF808000C20ADF8E4
:101A30000A000020ADF80C006946104800F006FBD3
:101A400026208DF8100001208DF8110002208DF85D
:101A5000120001208DF8130004A8FFF7C9F8012235
:101A600040F22551054800F0CBFA0121034800F06F
:101A70000FFA07B000BD0000000002400044004023
:101A800010B540F225512A4800F090FA00284CD0B9
:101A9000274800F045FBC4B226480078D0B9592C3D
:101AA00011D125480078401C234908700846007869
:101AB00002280FD10020087001201E490870002064
:101AC0001E49087010BD00201A4908701B49087093
:101AD000194908701748007870B1194817490978F2
:101AE000445416490978481CC11700EB5171C910BC
:101AF000A0EBC101114A117010480078A8B90D4837
:101B0000007890B100200B4908700D4800780C490E
:101B1000497840EA01200B49088009488078084943
:101B2000C97840EA01200849088000BFCAE70000E0
:101B300000440040390000203A0000203B00002013
:101B4000320000202E0000203000002000B587B0B9
:101B500001210220FFF794F801218804FFF7A0F883
:101B600001214805FFF78CF84FF4406005900220F2
:101B70008DF8180000208DF81A0003208DF8190048
:101B800001208DF81B0005A92048FEF727FF07223A
:101B90000A211E48FEF76AFF07220B211B48FEF7A9
:101BA00065FF1B4800F08AF9684600F0C2FA4FF45E
:101BB000E13000900020ADF80400ADF80600ADF86B
:101BC00008000C20ADF80A000020ADF80C006946B2
:101BD0000F4800F03BFA27208DF8100000208DF808
:101BE00011008DF8120001208DF8130004A8FEF7F3
:101BF000FFFF012240F22551054800F001FA0121C2
:101C0000034800F045F907B000BD000000040240A1
:101C10000048004010B540F22551174800F0C6F9C1
:101C200040B316490968164A1268881A002801DB71
:101C3000014600E041420A2902DD002011490870F6
:101C40000E4800680E4908600B4800F069FAC4B2FB
:101C50000D480C49097844540A480078401C094949
:101C60000870084600781E2804D100200870012062
:101C70000649087010BD0000004800400000002028
:101C8000200000201F000020680000201E0000200F
:101C900000B597B001210420FEF7F2FF01212020BA
:101CA000FFF71EF801218805FEF7EAFF8020159056
:101CB00002208DF8580000208DF8590001208DF881
:101CC0005B0015A93748FEF789FE08220721354831
:101CD000FEF7CCFE4FF4E13001900020ADF8080093
:101CE000ADF80A00ADF80C000420ADF80E0000209D
:101CF000ADF8100001A92C4800F0A8F94FF480704D
:101D00000E9000200A904FF480600B9000200C9001
:101D10000D904FF480300F90002010901190129091
:101D200013902248FEF76AFC4FF0206005901E4891
:101D3000001D06901E4807903C2009900020089046
:101D400005A91A48FEF72CFD47208DF85000012008
:101D50008DF8510004208DF8520001208DF85300B9
:101D600014A8FEF745FF002211493C310F48FEF749
:101D7000FCFC01210D48FEF7EDFC012240F224415C
:101D8000094800F03DF901224021074800F08CF895
:101D900001210648FEF726FC0121034800F078F8EF
:101DA00017B000BD00080240001401402864024042
:101DB0008500002010B540F22441304800F0F6F8CC
:101DC00000285AD02D4800882C48001D00882C4837
:101DD000FEF7DBFC40BB00212948FEF703FC284846
:101DE000FEF7CFFCC0F13C00264908603C202449A6
:101DF000091D0860081F006840F40020091F0860E2
:101E000001211F48FEF7EEFB1E4890ED000AB8EED8
:101E1000400ADFED1D0AB4EE600AF1EE10FA2CD193
:101E20001A4800F065FA28E000211548FEF7DAFBB1
:101E30001348FEF7A6FCC0F13C00124908603C20A4
:101E40000F49091D0860081F006820F40020091FC1
:101E5000086001210A48FEF7C5FB0A4890ED000A18
:101E6000B8EE400ADFED080AB4EE600AF1EE10FAAF
:101E700003D106483C3000F03BFA10BD001401408D
:101E80002864024008000020000004428500002071
:101E900021B1828942F40052828104E082894DF6A8
:101EA000FF731A40828170471AB1838A0B43838281
:101EB00002E0838A8B4383827047000010B504469A
:101EC0003248844208D101211020FEF719FF002179
:101ED0001020FEF715FF57E02D48844209D101215B
:101EE0004804FEF7EDFE00214FF40030FEF7E8FE57
:101EF0004AE02848844209D101218804FEF7E0FE27
:101F000000214FF48020FEF7DBFE3DE022488442B2
:101F100009D10121C804FEF7D3FE00214FF40020AF
:101F2000FEF7CEFE30E01D48844209D101210805AC
:101F3000FEF7C6FE00214FF48010FEF7C1FE23E03D
:101F40001748844208D101212020FEF7D9FE002144
:101F50002020FEF7D5FE17E01248844209D1012166
:101F60008807FEF7ADFE00214FF08040FEF7A8FE87
:101F70000AE00D48844207D101214005FEF7A0FE8A
:101F800000216005FEF79CFE10BD0000001001401E
:101F90000044004000480040004C00400050004019
:101FA0000014014000780040007C004070B50246FB
:101FB000002400230025002040F66A16B14200D11B
:101FC00000BFC1F3421501F01F03012606FA03F317
:101FD000012D02D19689334006E0022D02D1168AE6
:101FE000334001E0968A33400C12012606FA04F4CD
:101FF0001688344013B10CB1012000E0002070BD00
:10200000F0B50346002400260025002040F66A179C
:10201000B94200D100BF1846C1F3421401F01F06B7
:10202000012707FA06F5012C01D10C3004E0022C3F
:1020300001D1103000E014301AB107682F43076057
:1020400002E00768AF430760F0BD00002DE9FF47DD
:1020500005460E460024A14600BFA046B08900B147
:1020600000BF2C8A24F44054F08804432C82AC89AD
:1020700041F20C608443B088318908437189084378
:102080000443AC81AC8A24F44074B0890443AC822C
:102090006846FEF745FE2048854202D01F4885422B
:1020A00002D1DDF80C9001E0DDF80890A88900F479
:1020B000004040B109EBC90000EB0910316849004C
:1020C000B0FBF1F707E009EBC90000EB091031683C
:1020D0008900B0FBF1F76420B7FBF0F004012009A0
:1020E000642101FB1078A88900F4004040B132203F
:1020F00000EBC800B0FBF1F000F00700044308E07B
:10210000322000EB08106421B0FBF1F000F00F006A
:1021100004432C81BDE8FF870010014000140140FA
:1021200001468888C0F308007047C1F30802828026
:1021300070474FF41651016000218180C1800181F8
:102140000C21418100218181704700BFFEE702E040
:1021500008C8121F08C1002AFAD170477047002032
:1021600001E001C1121F002AFBD1704710B50178B0
:10217000DD293ED14178DD293BD1017F222938D1AB
:10218000417F222935D10021002200BF022209E02F
:10219000845C531CC35C44EA0323164C24F81130BE
:1021A000491C121D0529F3DB0021042209E0845C8F
:1021B000531CC35C44EA03230F4C24F81130491C20
:1021C000121D0529F3DB837D0C4C2370C37D047E37
:1021D00043EA04230A4C2380437E847E43EA04239B
:1021E000074C6380074B1B7813B1C37E064C2370EA
:1021F00000BF10BD2C010020360100201800002077
:102200001A0000201E0000201900002070B50446AE
:102210000D4629460348FFF754FA21460148FFF7C7
:1022200052FA70BD0004004010B504210948FEF7C1
:102230004BFC08210748FEF745FC44F620610648A0
:10224000FFF743FA4CF25030FEF7D8FA00F03EF8B0
:1022500010BD0000000802400004004010B508480E
:102260000078112802D1FFF7DFFF08E0044800786A
:10227000222802D100F058F901E000F027F810BD43
:10228000180000201CB501210420FEF7F9FC0120F4
:102290008DF8040003208DF8050000208DF806005D
:1022A0000C20009069460848FEF798FB69460648EE
:1022B000FEF794FB04210448FEF704FC08210248C1
:1022C000FEF700FC1CBD00000008024010B5042110
:1022D0000548FEF7F7FB08210348FEF7F3FB002152
:1022E0000248FFF7F2F910BD000802400004004068
:1022F00010B504462078552802D1204600F002F897
:1023000010BD000010B500214378512B32D18378E5
:10231000C47843EA04231BB200EE103AB8EEC00AB8
:10232000DFED710A20EE200A10EE103A6F4C2360A8
:102330000379447943EA04231BB200EE103AB8EE65
:10234000C00ADFED690A20EE200A10EE103A674C51
:1023500063608379C47943EA04231BB200EE103A28
:10236000B8EEC00ADFED600A20EE200A10EE103A47
:102370005E4CA3605E4B1B885B1CC35C522B44D13C
:102380005B4B1B889B1CC45C594B1B88DB1CC35CD0
:1023900044EA03231BB200EE103AB8EEC00ADFEDA8
:1023A000550A20EE200A10EE103A504CE360504BD4
:1023B0001B881B1DC45C4E4B1B885B1DC35C44EA21
:1023C00003231BB200EE103AB8EEC00ADFED490A53
:1023D00020EE200A10EE103A444C2361444B1B8837
:1023E0009B1DC45C424B1B88DB1DC35C44EA03237A
:1023F0001BB200EE103AB8EEC00ADFED3E0A20EE46
:10240000200A10EE103A394C63613B4B1B885B1C71
:10241000C35C532B66D1384B1B889B1CC45C364B6A
:102420001B88DB1CC35C44EA03231BB200EE103A9A
:10243000B8EEC00ADFED310A20EE200A10EE103AA5
:102440002A4CA3612C4B1B881B1DC45C2A4B1B8888
:102450005B1DC35C44EA03231BB200EE103AB8EEE6
:10246000C00ADFED260A20EE200A10EE103A1F4CBB
:10247000E361214B1B889B1DC45C1F4B1B88DB1D2C
:10248000C35C44EA03231BB200EE103AB8EEC00A64
:10249000DFED1A0A20EE200A10EE103A134C2362E8
:1024A0002346DB69164C2360104B1B6A154C2360D6
:1024B000AA23154C237063700C4A2032022104E0D9
:1024C0001378114C6354521C491C0529F8DD074A46
:1024D0001C32062104E013780B4C6354521C491C37
:1024E0000929F8DD10BD00000AD7A33BFD0000203C
:1024F0000C00002023DB793D0E00002076FFB33B6B
:102500001000002014000020210100200548007860
:10251000012804D1002003490870012070470020E1
:10252000FCE700002900002010B504210948FEF74F
:10253000C9FA08210748FEF7C7FA44F620610648A1
:10254000FFF7C3F84CF25030FEF758F9FFF7BEFE24
:1025500010BD000000080240000400401D21234877
:10256000FDF747FEFEF7A0FD002021490860FEF7B9
:1025700083FEFFF78DFBFFF7E9FAFFF721FAFFF77C
:1025800049F9FFF77FFEFEF7CDFE532144F61F60A9
:10259000FEF7F2FD00F0D4F8FEF7E6FC25E0144863
:1025A00000680A21B0FBF1F201FB120038B90F48B4
:1025B000FFF7DCFD0F4A11885088FFF727FE0C4813
:1025C00000681421B0FBF1F201FB120018B9FDF70D
:1025D000F1FF00F011F8064800686421B0FBF1F249
:1025E00001FB120008B9FFF739FED8E768000020A8
:1025F000000000201A00002010B53548007800F0D7
:10260000010038B1FEF722FC3148007800F0FE00EE
:102610002F4908702E48007800F00200022808D1E7
:102620000120FEF761FC2A48007800F0FD002849EF
:1026300008702748007800F00400042808D1022020
:10264000FEF752FC2248007800F0FB002049087099
:102650001F48007800F00800082808D10320FEF782
:1026600043FC1B48007800F0F7001949087018482F
:10267000007800F01000102808D10420FEF734FC88
:102680001348007800F0EF001149087010480078F6
:1026900000F02000202808D10520FEF725FC0C487A
:1026A000007800F0DF000A4908700948007800F05F
:1026B0004000402807D1FEF741FC0548007800F0B3
:1026C000BF000349087000200249087010BD0000D7
:1026D000190000201E00002070B504460D464FF47E
:1026E00000711548FEF7F0F94FF480711248FEF7BB
:1026F000E9F90A20FEF782F80BE000BF0F480088D6
:1027000000F040000028F9D014F8011B0B48FFF737
:102710000CFD2800A5F10101CDB2EED10A20FEF793
:102720006DF84FF400710448FEF7CCF94FF4807156
:102730000148FEF7C9F970BD0004024000100140D5
:1027400000B585B001211020FEF79AFA0121880317
:10275000FEF7C6FA0220039001208DF81000032036
:102760008DF8110000208DF8120003A91B48FEF718
:1027700035F90120039000208DF8100003208DF81A
:10278000110003A91548FEF729F900210420FEF7DE
:102790003DFB0120FEF7C6F800208DF80800082058
:1027A0008DF80900012001908DF80A0001A8FEF7BC
:1027B000CBF806208DF8000001208DF801000220E2
:1027C0008DF8020001208DF803006846FEF710FA2C
:1027D00002210248FEF776F905B000BD0010024064
:1027E0000028000800000020680000004E210008BA
:1027F0006828000868000020080500005E21000825
:102800000000000000000000000000000B001600A7
:1028100000000000000000000000000000000000B8
:1028200000000000000000000000000002000000A6
:102830000000000000000000000000000000000098
:10284000000000000000000102030401020304066E
:1028500007080900007A030A0000000000000000D9
:08286000010203040607080948
:040000050800018965
:00000001FF
