:020000040800F2
:10000000480500209D010008090A0008E9080008C9
:10001000050A0008E1050008471900080000000073
:10002000000000000000000000000000250C000897
:100030001706000800000000990A0008950E000845
:10004000B7010008B7010008B7010008B7010008B0
:10005000B7010008B701000831060008B701000821
:10006000B7010008B7010008B7010008B701000890
:10007000B7010008B7010008B7010008B701000880
:10008000B7010008B7010008B7010008B701000870
:10009000B7010008B7010008B7010008B701000860
:1000A000B7010008B7010008B7010008B701000850
:1000B000B7010008B7010008B7010008B701000840
:1000C000B7010008B7010008B7010008B701000830
:1000D000B701000815120008C113000855150008E3
:1000E000B7010008B7010008B7010008B701000810
:1000F000B7010008B7010008B7010008B701000800
:10010000B7010008B7010008B7010008B7010008EF
:1001100041110008B7010008D90F000819100008A4
:10012000B7010008B7010008B7010008B7010008CF
:10013000B7010008B7010008B7010008B7010008BF
:10014000B7010008B7010008B7010008B7010008AF
:10015000B7010008B7010008B7010008C51500087D
:10016000B7010008B7010008B7010008B70100088F
:10017000B7010008B7010008B7010008B70100087F
:10018000B7010008B7010008DFF80CD000F0E0F973
:1001900000480047B91C0008480500200648804771
:1001A00006480047FEE7FEE7FEE7FEE7FEE7FEE75C
:1001B000FEE7FEE7FEE7FEE7050F000889010008FD
:1001C00040EA01039B0703D009E008C9121F08C0D9
:1001D000042AFAD203E011F8013B00F8013B521E59
:1001E000F9D27047D2B201E000F8012B491EFBD2D0
:1001F00070470022F6E710B513460A460446194632
:10020000FFF7F0FF204610BD2DE9FE4F81EA030401
:1002100004F0004421F0004100944FF0000B23F063
:10022000004350EA01045ED052EA03045BD0C3F3FA
:100230000A54C1F30A552C44A4F2F3340194A0FBF0
:100240000254C1F3130141F48011C3F3130343F4C7
:10025000801301FB024400FB034E840A970A44EA20
:10026000815447EA8357A4FB076802958D0A05FB72
:1002700007854FEA932C04FB0C542705029D4FEA97
:10028000065847EA1637B5EB08056EEB070C870EE4
:10029000920E47EA811742EA8312A7FB0201B6EBEE
:1002A0000B0164EB00042B0D43EA0C335E1844EBA6
:1002B0001C50DA465146E7FB0201C5F313044FEA2E
:1002C0000B3343EA14534FEA0432019C43EA06031A
:1002D000A4F10C040294009CCDE900B400F0EAF80B
:1002E00003B0BDE8F08F00200146F9E72DE9F04D9D
:1002F00081EA030404F0004B21F0004514464FF05E
:10030000000A23F0004150EA050220D054EA01021D
:100310001DD0C5F30A570246C5F31303C1F31300FA
:10032000C1F30A5640F4801543F48013A7EB060886
:10033000101BD64608F2FD3873EB050002D308F116
:10034000010801E092185B41B8F1000F03DA0020C8
:100350000146BDE8F08D00204FF48011064684462A
:100360000EE0171B73EB050705D3121B63EB0503A8
:1003700006434CEA010C49084FEA300092185B41F1
:1003800050EA0107EDD152EA030012D082EA0400DC
:1003900083EA0501084305D0101BAB4106D20122B8
:1003A000002306E000224FF0004302E06FF001025C
:1003B00053101AEB06004CEB085110EB0A0041EB0E
:1003C0000B01BDE8F04D00F066B800F0004230F0DF
:1003D00000400AD0C10D01F56071C0F3160042EA79
:1003E0000151C20840071143704700200146704781
:1003F00001F0004330B421F0004150EA010206D080
:100400000A0DA2F56072C1F31301002A02DC30BCB0
:1004100000207047440F44EAC104C100E01830BC1A
:1004200000EBC250AFF300800029A8BF7047401C0A
:10043000490008BF20F00100704710B4B0FA80FCFA
:1004400000FA0CF050EA010404BF10BC704749B137
:10045000CCF1200421FA04F411FA0CF118BF0121A7
:1004600021430843A3EB0C01CB1D4FEA00614FEA87
:10047000102042BF002010BC704700EBC350104456
:100480000029A4BF10BC7047401C490008BF20F0E1
:10049000010010BC704710B5141E73F1000408DA97
:1004A000401C41F1000192185B411A4301D120F038
:1004B000010010BD2DE9F04D92469B4611B1B1FAF5
:1004C00081F202E0B0FA80F22032904600F052F859
:1004D00004460F4640EA0A0041EA0B0153465A46D9
:1004E000084313D0114653EA010019D0C8F1400265
:1004F000504600F04EF805460E46504659464246D4
:1005000000F038F8084305D0012004E020463946C1
:10051000BDE8F08D0020054346EAE0762C433743E2
:100520000A986305E40AA0EB08000022FD0A44EAE9
:1005300047540A3002D500200146E9E701051019A9
:100540006941DDE9084500196941BDE8F04DA2E7C0
:10055000064C074D06E0E06840F0010394E8070010
:1005600098471034AC42F6D3FFF712FEB41D0008D2
:10057000D41D0008202A04DB203A00FA02F10020F2
:1005800070479140C2F1200320FA03F319439040D1
:100590007047202A04DB203A21FA02F0002170473C
:1005A00021FA02F3D040C2F12002914008431946DB
:1005B0007047000010B500240BE0074B33F81420FF
:1005C000064B33F8143019B2631CD8B200F0CEF9E0
:1005D000641C052CF1DB10BD1C0100201201002061
:1005E00000BFFEE721B1026842F00102026003E0B1
:1005F000026822F00102026070470146486880B23A
:100600007047014600200A6802F400220AB1012066
:1006100000E000207047704701B504490098086069
:1006200000BF024800680028FBD108BD340000204C
:1006300000B52DED088B83B0012000F087F800286D
:1006400065D00121344800F042F9D8B1012000F012
:1006500077F80121314800F0FDFC0021042000F072
:10066000E3FA012000F06CF800208DF808000C205F
:100670008DF80900012001908DF80A0001A800F012
:1006800071F841E00021254800F0E4FC244890ED99
:10069000000AB8EE400A10EE100AFFF796FE41EC91
:1006A0001B0B9FED200B53EC102BFFF7ADFD41EC26
:1006B0001A0B9FED1E0B53EC102BFFF7A5FD41EC21
:1006C000190B9FED1C0B53EC102BFFF70FFE41ECA9
:1006D000180BFFF78DFE19490860002010490860CB
:1006E0000021042000F0A0FA012000F029F80020E9
:1006F0008DF8080008208DF80900012001908DF880
:100700000A0001A800F02EF8012000F019F803B04B
:10071000BDEC088B00BD000000100240001400403A
:10072000040000202D431CEBE2361A3F00000000BD
:100730000040754000000000000000401C00002048
:100740000149086070470000143C01400146002048
:10075000034A12680A400AB1012000E000207047F5
:10076000143C0140002123498279002A3AD00A46EC
:10077000126803689A430B461A600A1D12680368E0
:100780009A430B1D1A60027911440A6803681A43E0
:100790000A60184A0832126803689A43154B0833F6
:1007A0001A601A1D126803689A43124B0C331A60C0
:1007B0004279102A0ED11A1F126803681A430D4B92
:1007C00008331A601A1D126803681A43094B0C3368
:1007D0001A600DE00749427911440A6803681A4318
:1007E0000A6005E0027911440A6803689A430A60C6
:1007F00070470000003C0140F0B50A46002100238C
:10080000002400BF3DE0012505FA01F3156805EA63
:1008100003049C4234D105684F000326BE40B54313
:10082000056015794E00B5400668354305601579B9
:10083000012D02D01579022D16D185684F000326AF
:10084000BE40B543856055794E00B5408668354356
:100850008560456801268E40B543456045689679B8
:100860008E40B6B235434560C5684F000326BE4092
:10087000B543C560D5794E00B540C6683543C560FF
:10088000491C1029BFD3F0BDF0B5002300244D074B
:10089000ED0E02FA05F3CE1000F1200555F82650B2
:1008A0004E07F70E0F26BE40B543CF1000F12006CD
:1008B00046F82750CE1000F1200555F8265045EA9D
:1008C0000304CE1000F1200545F82640F0BD024695
:1008D000002013690B400BB1012000E0002070479D
:1008E000418370470183704700BFFEE70146002245
:1008F000022004E00B5C13449AB2431CD8B2CB78BC
:100900009B1C8342F6DCD3439AB2D0B270470000FE
:1009100070B54CF2503604E0761E002E01DA114814
:1009200070BD01F0A1F90028F6D00F48FFF7DEFFF7
:100930000D49C978891C0C4A515C884202D06FF479
:100940000060EDE7084804791C2C06D1407906497F
:10095000897940EA01252846E2E700BF00BF002070
:10096000DEE7000000F8FFFF36010020FEB5064676
:100970000C461546002C00DA0024B4F57A7F01DD20
:100980004FF47A7455208DF801008DF800008DF831
:10099000026007208DF8030001208DF80400E0B20A
:1009A0008DF80500200A8DF80600E8B28DF80700E2
:1009B00028128DF808006846FFF798FF8DF80900A7
:1009C0000A21684601F0C2F9FEBD7CB504465520F7
:1009D0008DF801008DF800008DF8024003208DF89D
:1009E00003001C208DF804006846FFF77FFF8DF898
:1009F00005000621684601F0A9F9FFF789FF0546C1
:100A000028467CBD00BFFEE77047000070B500219E
:100A100000230F22C4781CB3174C246804F4E0644C
:100A2000C4F5E064C4F30721C1F10404E3B20A4150
:100A300044789C40E1B28478144021430C07210E95
:100A40000E4C05786155047804F01F050124AC4074
:100A500005786D11AD0005F1E025C5F8004109E00C
:100A6000047804F01F050124AC40054D067876118A
:100A700045F8264070BD00000CED00E000E400E009
:100A800080E100E002490143024A11607047000022
:100A90000000FA050CED00E07047000029B1064A9D
:100AA00012680243044B1A6004E0034A126882434E
:100AB000014B1A60704700003038024029B1064AE5
:100AC00012680243044B1A6004E0034A126882432E
:100AD000014B1A60704700004038024029B1064AB5
:100AE00012680243044B1A6004E0034A126882430E
:100AF000014B1A60704700002038024029B1064AB5
:100B000012680243044B1A6004E0034A12688243ED
:100B1000014B1A60704700004438024029B1064A70
:100B200012680243044B1A6004E0034A12688243CD
:100B3000014B1A607047000024380240F0B50021D4
:100B400000220024022500260223324F3F6807F0CE
:100B50000C0121B1042905D0082937D105E02E4F19
:100B6000076036E02D4F076033E02A4F3F1F3F6894
:100B7000C7F38056274F3F1F3F6807F03F036EB112
:100B8000264FB7FBF3F7DFF88CC0ACF1040CDCF8B0
:100B900000C0CCF3881C07FB0CF40CE01E4FB7FB25
:100BA000F3F7DFF870C0ACF1040CDCF800C0CCF354
:100BB000881C07FB0CF4174F3F1F3F68C7F3014722
:100BC0007F1C7D00B4FBF5F7076002E0124F076061
:100BD00000BF00BF0F4F3F6807F0F0010909104F39
:100BE0007A5C0768D74047600A4F3F6807F4E051D6
:100BF000890A0B4F7A5C4768D7408760054F3F688A
:100C000007F46041490B064F7A5C4768D740C760DC
:100C1000F0BD0000083802400024F40040787D0157
:100C2000380000207047000030B500228B071C0FF1
:100C30000F2303FA04F20B4B8C1053F82430934328
:100C4000084C8D1044F8253023468C1053F824307E
:100C50008C07240F00FA04F42343024C8D1044F84F
:100C6000253030BD0838014010B52348008864287D
:100C700025DD214800884FF6FF7188421FDAEE21FA
:100C80001E4800F050FE0A20FFF7C6FCEE211B486C
:100C900000F049FE0A20FFF7BFFC19480178174809
:100CA00000F041FE0A20FFF7B7FC1548008801124A
:100CB000124800F038FE0A20FFF7AEFC1BE0EE21E0
:100CC0000E4800F030FE0A20FFF7A6FCEE210B488C
:100CD00000F029FE0A20FFF79FFCFF21074800F0E3
:100CE00022FE0A20FFF798FCFF21044800F01BFEBB
:100CF0000A20FFF791FC10BD2800002000480040AA
:100D0000260000202DE9F041044600260025C4F10C
:100D1000FF072046FFF759FE0646B5B239460E4892
:100D200000F001FE0A20FFF777FC39460A4800F080
:100D3000FAFD0A20FFF770FCE9B2074800F0F3FD66
:100D40000A20FFF769FC2912034800F0ECFD0A2095
:100D5000FFF762FCBDE8F081004800401CB50121AE
:100D60000220FFF79BFE01208DF8040003208DF880
:100D7000050000208DF806004FF440700090694691
:100D80000848FFF739FD69460648FFF735FD4FF47F
:100D900080710448FFF7A4FD4FF400710148FFF78C
:100DA0009FFD1CBD000402400CB500200190009086
:100DB0003448006840F480303249086000BF314850
:100DC000006800F4003000900198401C01900098E9
:100DD00018B90198B0F5A04FF1D12A48006800F485
:100DE000003010B10120009001E000200090009838
:100DF000012846D123484030006840F08050214906
:100E0000403108602048006840F440401E490860B6
:100E10001C48083000681B49083108600846006813
:100E200040F4004008600846006840F4A0500860A4
:100E30001648091F0860081F006840F08070091FED
:100E4000086000BF0F48006800F000700028F9D06B
:100E500040F205600E4908600A480830006820F03A
:100E600003000849083108600846006840F00200A5
:100E7000086000BF03480830006800F00C00082834
:100E8000F8D10CBD003802400070004019544007F2
:100E9000003C024000B500F047F900BD30B51548F0
:100EA0000068154AB0FBF2F1481EB0F1807F01D313
:100EB00001201BE0481E4FF0E022506150170F2226
:100EC000002807DA13071D0E0C4B00F00F04241F37
:100ED0001D5503E013071C0E094B1C5400BF0020D6
:100EE0004FF0E022906107201061002008B100BFA0
:100EF000FEE730BD48000020A086010018ED00E0AC
:100F000000E400E010B51548006840F47000134993
:100F100008601348006840F0010011490860002093
:100F20000F49083108600E4800680E4908400C4916
:100F300008600D48091D0860081F006820F4802023
:100F4000091F0860002006490C310860FFF72CFFDC
:100F50004FF0006001498039086010BD88ED00E065
:100F600000380240FFFFF6FE103000241FB50121BB
:100F70001020FFF7A3FD5320ADF804004FF47A7062
:100F800002900020ADF80600ADF80C0001A9114850
:100F900000F088F84FF4C060FFF774FD36208DF83C
:100FA000000001208DF801008DF802008DF803008B
:100FB0006846FFF72BFD0121064800F04BF801229F
:100FC0001146044800F063F80121024800F03CF8A3
:100FD0001FBD00000010004010B501210C4800F0BA
:100FE00045F898B101210A4800F031F8012108487C
:100FF00000F02AF807480068401C064908600846C7
:101000000068B0F5FA6F01D10020086010BD000043
:10101000001000400000002010B50121084800F039
:1010200025F860B10121064800F011F801210448BB
:1010300000F00AF803480068401C0249086010BD2F
:101040000014004004000020CA4302827047CA43D3
:101050000282704721B1028842F00102028004E05E
:1010600002884FF6FE731A400280704730B5024680
:10107000002000230024158A05EA0103958905EA6A
:10108000010413B10CB1012000E0002030BD1AB101
:1010900083890B43838102E083898B43838170477B
:1010A000C163704700220288184B98420ED0184B3B
:1010B00098420BD0B0F1804F08D0164B984205D023
:1010C000154B984202D0154B984204D14FF68F73BE
:1010D0001A404B881A43124B984207D0114B984242
:1010E00004D04FF6FF431A400B891A4302804B6825
:1010F000C3620B880385054B984202D0044B98428B
:1011000001D18B7A0386012383827047000001405E
:10111000000401400004004000080040000C0040B2
:1011200000100040001400400448006820B103484B
:101130000068401E0149086070470000340000202C
:1011400010B540F22551024800F02EFB10BD000002
:10115000004C004000B587B001210846FFF79EFC17
:1011600001211020FFF7CAFC4FF4C0600590022057
:101170008DF8180000208DF81A0003208DF8190052
:1011800001208DF81B0005A92048FFF735FB072239
:1011900009211E48FFF778FB07220A211B48FFF7A9
:1011A00073FB1B4800F088FA684600F0C0FB4FF460
:1011B000E13000900020ADF80400ADF80600ADF875
:1011C00008000C20ADF80A000020ADF80C006946BC
:1011D0000F4800F039FB25208DF8100001208DF814
:1011E000110003208DF8120001208DF8130004A8CF
:1011F000FFF70CFC012240F22551054800F0FEFAF1
:101200000121034800F04CFA07B000BD0000024085
:101210000010014010B540F22551314800F0C4FAE9
:1012200000285BD02E4800F079FBC4B22D4800782E
:10123000C8B9552C10D12C480078401C2A49087098
:101240000846007802280ED10020087001202549A8
:1012500008702649087006E00020224908702349DA
:101260000870214908701F480078B8B320481F490A
:10127000097844541D480078032813D11C481B49A1
:101280000978405C1B49087008460078032803DB96
:1012900008460078072805DD03201649087000205D
:1012A0001049087011480078401C10490870084621
:1012B000017810480078C01C81420FD10E48007898
:1012C00048B901200C49087008480278921C084966
:1012D0000A48FEF775FF00200249087010BD0000A3
:1012E00000100140220000202300002025000020E3
:1012F00026010020240000202100002036010020CB
:1013000000B587B001210846FFF7C8FB012148045A
:10131000FFF7D4FB0C20059002208DF81800002068
:101320008DF81A0003208DF8190001208DF81B009C
:1013300005A92148FFF760FA072202211E48FFF79E
:10134000A3FA072203211C48FFF79EFA1B4800F06E
:10135000B3F9684600F0EBFA4FF4E130009000205A
:10136000ADF80400ADF80600ADF808000C20ADF8AB
:101370000A000020ADF80C006946104800F064FA3D
:1013800026208DF8100001208DF8110002208DF824
:10139000120001208DF8130004A8FFF737FB01228B
:1013A00040F22551054800F029FA0121034800F0D8
:1013B00077F907B000BD0000000002400044004083
:1013C00010B540F225512A4800F0EEF900284CD023
:1013D000274800F0A3FAC4B226480078D0B9592CA7
:1013E00011D125480078401C234908700846007830
:1013F00002280FD10020087001201E49087000202B
:101400001E49087010BD00201A4908701B49087059
:10141000194908701748007870B1194817490978B8
:10142000445416490978481CC11700EB5171C91082
:10143000A0EBC101114A117010480078A8B90D48FD
:10144000007890B100200B4908700D4800780C49D5
:10145000497840EA01200B4908800948807808490A
:10146000C97840EA01200849088000BFCAE70000A7
:1014700000440040310000203200002033000020F2
:101480002A000020260000202800002000B587B098
:1014900001210220FFF702FB01218804FFF70EFB68
:1014A00001214805FFF7FAFA4FF440600590022049
:1014B0008DF8180000208DF81A0003208DF819000F
:1014C00001208DF81B0005A92048FFF795F9072298
:1014D0000A211E48FFF7D8F907220B211B48FFF706
:1014E000D3F91B4800F0E8F8684600F020FA4FF402
:1014F000E13000900020ADF80400ADF80600ADF832
:1015000008000C20ADF80A000020ADF80C00694678
:101510000F4800F099F927208DF8100000208DF871
:1015200011008DF8120001208DF8130004A8FFF7B8
:101530006DFA012240F22551054800F05FF90121C2
:10154000034800F0ADF807B000BD00000004024001
:101550000048004010B540F22551154800F024F92C
:1015600028B314490968144A1268881A002801DB54
:10157000014600E041420A2902DD00200F490870BF
:101580000C4800680C490860094800F0C7F9C4B26B
:101590000B480A490978445408480078401C074918
:1015A000087008460078192801D10020087010BD85
:1015B0000048004000000020180000201600002015
:1015C0005C00002010B540F22441304800F0ECF8F7
:1015D00000285AD02D4800882C48001D00882C482F
:1015E000FFF70FF840BB00212948FEF7FBFF284812
:1015F000FFF703F8C0F13C00264908603C2024496D
:10160000091D0860081F006840F40020091F0860D9
:1016100001211F48FEF7E6FF1E4890ED000AB8EED4
:10162000400ADFED1D0AB4EE600AF1EE10FA2CD18B
:101630001A4800F035FA28E000211548FEF7D2FFDD
:101640001348FEF7DAFFC0F13C00124908603C2065
:101650000F49091D0860081F006820F40020091FB9
:10166000086001210A48FEF7BDFF0A4890ED000A14
:10167000B8EE400ADFED080AB4EE600AF1EE10FAA7
:1016800003D106483C3000F00BFA10BD00140140B5
:101690002864024008000020000004427500002079
:1016A00021B1828942F40052828104E082894DF6A0
:1016B000FF731A408281704710B504463248844255
:1016C00008D101211020FFF729FA00211020FFF78F
:1016D00025FA57E02D48844209D101214804FFF73B
:1016E000FDF900214FF40030FFF7F8F94AE02848EF
:1016F000844209D101218804FFF7F0F900214FF459
:101700008020FFF7EBF93DE02248844209D1012116
:10171000C804FFF7E3F900214FF40020FFF7DEF9DA
:1017200030E01D48844209D101210805FFF7D6F9B0
:1017300000214FF48010FFF7D1F923E017488442CD
:1017400008D101212020FFF7E9F900212020FFF72F
:10175000E5F917E01248844209D101218807FFF713
:10176000BDF900214FF08040FFF7B8F90AE00D48BD
:10177000844207D101214005FFF7B0F9002160053F
:10178000FFF7ACF910BD000000100140004400401C
:1017900000480040004C0040005000400014014050
:1017A00000780040007C004070B502460024002311
:1017B0000025002040F66A16B14200D100BFC1F3F7
:1017C000421501F01F03012606FA03F3012D02D191
:1017D0009689334006E0022D02D1168A334001E09B
:1017E000968A33400C12012606FA04F41688344017
:1017F00013B10CB1012000E0002070BDF0B503462C
:10180000002400260025002040F66A17B94200D1C6
:1018100000BF1846C1F3421401F01F06012707FA62
:1018200006F5012C01D10C3004E0022C01D110305E
:1018300000E014301AB107682F43076002E0076820
:10184000AF430760F0BD00002DE9FF4705460E4697
:101850000024A14600BFA046B08900B100BF2C8A79
:1018600024F44054F08804432C82AC8941F20C608B
:101870008443B08831890843718908430443AC81AB
:10188000AC8A24F44074B0890443AC826846FFF704
:1018900055F92048854202D01F48854202D1DDF823
:1018A0000C9001E0DDF80890A88900F4004040B1F8
:1018B00009EBC90000EB091031684900B0FBF1F7F2
:1018C00007E009EBC90000EB091031688900B0FBA3
:1018D000F1F76420B7FBF0F004012009642101FB5B
:1018E0001078A88900F4004040B1322000EBC80015
:1018F000B0FBF1F000F00700044308E0322000EBF9
:1019000008106421B0FBF1F000F00F0004432C81BB
:10191000BDE8FF870010014000140140014688889F
:10192000C0F308007047C1F30802828070474FF48B
:101930001651016000218180C18001810C2141810B
:1019400000218181704700BFFEE702E008C8121F36
:1019500008C1002AFAD170477047002001E001C198
:10196000121F002AFBD1704710B50178DD292CD158
:101970004178DD2929D1C17D222926D1017E222964
:1019800023D10021002200BF022209E0845C531C05
:10199000C35C44EA03230D4C24F81130491C121D8A
:1019A0000529F3DB0021042209E0845C531CC35C9D
:1019B00044EA0323064C24F81130491C121D052962
:1019C000F3DB837D034C237000BF10BD12010020A8
:1019D0001C0100201000002010B504210948FEF76A
:1019E00081FF08210748FEF77BFF44F62061064887
:1019F000FFF756FB4CF25030FEF70EFE00F03EF8BB
:101A000010BD0000000802400004004010B5084866
:101A10000078112802D1FFF7DFFF08E004480078C2
:101A2000222802D100F02EF901E000F027F810BDC5
:101A3000100000201CB501210420FFF72FF8012021
:101A40008DF8040003208DF8050000208DF80600B5
:101A50000C20009069460848FEF7CEFE694606480D
:101A6000FEF7CAFE04210448FEF73AFF08210248A7
:101A7000FEF736FF1CBD00000008024010B504212F
:101A80000548FEF72DFF08210348FEF729FF002136
:101A90000248FFF705FB10BD0008024000040040AB
:101AA00010B504462078552802D1204600F002F8EF
:101AB00010BD000000214278512A32D18278C378CB
:101AC00042EA032212B200EE102AB8EEC00ADFED9D
:101AD000600A20EE200A10EE102A5E4B1A6002798E
:101AE000437942EA032212B200EE102AB8EEC00A8D
:101AF000DFED570A20EE200A10EE102A554B5A60EF
:101B00008279C37942EA032212B200EE102AB8EEBB
:101B1000C00ADFED4F0A20EE200A10EE102A4D4BCE
:101B20009A604D4A1288521C825C522A44D14A4A19
:101B30001288921C835C484A1288D21C825C43EA59
:101B4000022212B200EE102AB8EEC00ADFED430AFC
:101B500020EE200A10EE102A3E4BDA603E4A128830
:101B6000121D835C3C4A1288521D825C43EA0222A9
:101B700012B200EE102AB8EEC00ADFED380A20EEED
:101B8000200A10EE102A334B1A61334A1288921D34
:101B9000835C314A1288D21D825C43EA022212B26F
:101BA00000EE102AB8EEC00ADFED2C0A20EE200A63
:101BB00010EE102A274B5A61294A1288521C825C67
:101BC000532A44D1264A1288921C835C244A1288E4
:101BD000D21C825C43EA022212B200EE102AB8EE56
:101BE000C00ADFED200A20EE200A10EE102A194B61
:101BF0009A611B4A1288121D835C194A1288521D71
:101C0000825C43EA022212B200EE102AB8EEC00A49
:101C1000DFED140A20EE200A10EE102A0D4BDA61D7
:101C20000F4A1288921D835C0D4A1288D21D825C75
:101C300043EA022212B200EE102AB8EEC00ADFED2B
:101C4000090A20EE200A10EE102A024B1A62704791
:101C50000AD7A33BED0000200C00002023DB793DD8
:101C60000E00002076FFB33B05480078012804D120
:101C7000002003490870012070470020FCE70000A5
:101C80002100002010B504210948FEF729FE082193
:101C90000748FEF727FE44F620610648FFF700FAE2
:101CA0004CF25030FEF7B8FCFFF7E8FE10BD000024
:101CB000000802400004004019211B48FEF799FA71
:101CC000FFF7ECF8002019490860FFF74FF9FFF71C
:101CD000DDFBFFF715FBFFF73DFAFFF7ABFEFFF764
:101CE0003DF820E0114800680A21B0FBF1F201FB49
:101CF000120010B90C48FFF737FE0C480068142199
:101D0000B0FBF1F201FB120018B9FEF753FC00F032
:101D10000FF8064800686421B0FBF1F201FB1200E5
:101D200008B9FFF773FEDDE75C000020000000202B
:101D300010B5012404E02046FEF7E4FF601CC4B2A5
:101D4000052CF8DDFEF790FF10BD000070B50446CD
:101D50000D464FF400711548FEF7C4FD4FF4807135
:101D60001248FEF7BDFD0A20FEF756FC0BE000BF4F
:101D70000F48008800F040000028F9D014F8011B3B
:101D80000B48FFF7D0FD2800A5F10101CDB2EED13F
:101D90000A20FEF741FC4FF400710448FEF7A0FD55
:101DA0004FF480710148FEF79DFD70BD00040240B4
:101DB00000100140D41D0008000000205C0000005D
:101DC0004A190008301E00085C000020EC040000E6
:101DD0005A19000800000000000000000000000088
:101DE0000B001600000000000000000000000000D2
:101DF00000000000000000000200000000000000E1
:101E000000000000000000000000000000000000D2
:101E1000010203040102030406070809007A030A09
:101E2000000000000000000001020304060708098A
:040000050800018965
:00000001FF
