:020000040800F2
:10000000C00400209D010008FD090008DD0800086B
:10001000F9090008E10500084B1E00080000000077
:10002000000000000000000000000000190C0008A3
:10003000E5050008000000008D0A0008C50E000854
:10004000B7010008B7010008B7010008B7010008B0
:10005000B7010008B701000801060008B701000851
:10006000B7010008B7010008B7010008B701000890
:10007000B7010008B7010008B7010008B701000880
:10008000B7010008B7010008B7010008B701000870
:10009000B7010008B7010008B7010008B701000860
:1000A000B7010008B7010008B7010008B701000850
:1000B000B7010008B7010008B7010008B701000840
:1000C000B7010008B7010008B7010008B701000830
:1000D000B7010008C11700086D190008011B0008CE
:1000E000B7010008B7010008B7010008B701000810
:1000F000B7010008B7010008B7010008B701000800
:10010000B7010008B7010008B7010008B7010008EF
:1001100045160008B701000809110008B1110008D0
:10012000B7010008B7010008B7010008B7010008CF
:10013000B7010008B7010008B7010008B7010008BF
:10014000B7010008B7010008B7010008B7010008AF
:10015000B7010008B7010008B70100087D1B0008BF
:10016000B7010008B7010008B7010008B70100088F
:10017000B7010008B7010008B7010008B70100087F
:10018000B7010008B7010008DFF80CD000F0E0F973
:100190000048004741200008C0040020064880476E
:1001A00006480047FEE7FEE7FEE7FEE7FEE7FEE75C
:1001B000FEE7FEE7FEE7FEE7350F000889010008CD
:1001C00040EA01039B0703D009E008C9121F08C0D9
:1001D000042AFAD203E011F8013B00F8013B521E59
:1001E000F9D27047D2B201E000F8012B491EFBD2D0
:1001F00070470022F6E710B513460A460446194632
:10020000FFF7F0FF204610BD2DE9FE4F81EA030401
:1002100004F0004421F0004100944FF0000B23F063
:10022000004350EA01045ED052EA03045BD0C3F3FA
:100230000A54C1F30A552C44A4F2F3340194A0FBF0
:100240000254C1F3130141F48011C3F3130343F4C7
:10025000801301FB024400FB034E840A970A44EA20
:10026000815447EA8357A4FB076802958D0A05FB72
:1002700007854FEA932C04FB0C542705029D4FEA97
:10028000065847EA1637B5EB08056EEB070C870EE4
:10029000920E47EA811742EA8312A7FB0201B6EBEE
:1002A0000B0164EB00042B0D43EA0C335E1844EBA6
:1002B0001C50DA465146E7FB0201C5F313044FEA2E
:1002C0000B3343EA14534FEA0432019C43EA06031A
:1002D000A4F10C040294009CCDE900B400F0EAF80B
:1002E00003B0BDE8F08F00200146F9E72DE9F04D9D
:1002F00081EA030404F0004B21F0004514464FF05E
:10030000000A23F0004150EA050220D054EA01021D
:100310001DD0C5F30A570246C5F31303C1F31300FA
:10032000C1F30A5640F4801543F48013A7EB060886
:10033000101BD64608F2FD3873EB050002D308F116
:10034000010801E092185B41B8F1000F03DA0020C8
:100350000146BDE8F08D00204FF48011064684462A
:100360000EE0171B73EB050705D3121B63EB0503A8
:1003700006434CEA010C49084FEA300092185B41F1
:1003800050EA0107EDD152EA030012D082EA0400DC
:1003900083EA0501084305D0101BAB4106D20122B8
:1003A000002306E000224FF0004302E06FF001025C
:1003B00053101AEB06004CEB085110EB0A0041EB0E
:1003C0000B01BDE8F04D00F066B800F0004230F0DF
:1003D00000400AD0C10D01F56071C0F3160042EA79
:1003E0000151C20840071143704700200146704781
:1003F00001F0004330B421F0004150EA010206D080
:100400000A0DA2F56072C1F31301002A02DC30BCB0
:1004100000207047440F44EAC104C100E01830BC1A
:1004200000EBC250AFF300800029A8BF7047401C0A
:10043000490008BF20F00100704710B4B0FA80FCFA
:1004400000FA0CF050EA010404BF10BC704749B137
:10045000CCF1200421FA04F411FA0CF118BF0121A7
:1004600021430843A3EB0C01CB1D4FEA00614FEA87
:10047000102042BF002010BC704700EBC350104456
:100480000029A4BF10BC7047401C490008BF20F0E1
:10049000010010BC704710B5141E73F1000408DA97
:1004A000401C41F1000192185B411A4301D120F038
:1004B000010010BD2DE9F04D92469B4611B1B1FAF5
:1004C00081F202E0B0FA80F22032904600F052F859
:1004D00004460F4640EA0A0041EA0B0153465A46D9
:1004E000084313D0114653EA010019D0C8F1400265
:1004F000504600F04EF805460E46504659464246D4
:1005000000F038F8084305D0012004E020463946C1
:10051000BDE8F08D0020054346EAE0762C433743E2
:100520000A986305E40AA0EB08000022FD0A44EAE9
:1005300047540A3002D500200146E9E701051019A9
:100540006941DDE9084500196941BDE8F04DA2E7C0
:10055000064C074D06E0E06840F0010394E8070010
:1005600098471034AC42F6D3FFF712FEC8220008B9
:10057000E8220008202A04DB203A00FA02F10020D9
:1005800070479140C2F1200320FA03F319439040D1
:100590007047202A04DB203A21FA02F0002170473C
:1005A00021FA02F3D040C2F12002914008431946DB
:1005B0007047000010B500240BE0074B33F81420FF
:1005C000064B33F8143019B2631CD8B200F0C8F9E6
:1005D000641C052CF1DB10BD80000020760000209B
:1005E00000BFFEE77047000001B5044900980860AD
:1005F00000BF024800680028FBD108BD2C00002085
:1006000000B52DED088B83B0012000F087F800289D
:1006100065D00121344800F042F9D8B1012000F042
:1006200077F80121314800F0EDFD0021042000F0B1
:10063000F5FA012000F06CF800208DF808000C207D
:100640008DF80900012001908DF80A0001A800F042
:1006500071F841E00021254800F0D4FD244890EDD8
:10066000000AB8EE400A10EE100AFFF7AEFE41ECA9
:100670001B0B9FED200B53EC102BFFF7C5FD41EC3E
:100680001A0B9FED1E0B53EC102BFFF7BDFD41EC39
:10069000190B9FED1C0B53EC102BFFF727FE41ECC1
:1006A000180BFFF7A5FE19490860002010490860E3
:1006B0000021042000F0B2FA012000F029F8002007
:1006C0008DF8080008208DF80900012001908DF8B0
:1006D0000A0001A800F02EF8012000F019F803B07C
:1006E000BDEC088B00BD000000100240001400406B
:1006F000040000202D431CEBE2361A3F00000000EE
:100700000040754000000000000000401400002080
:100710000149086070470000143C01400146002078
:10072000034A12680A400AB1012000E00020704725
:10073000143C0140002123498279002A3AD00A461C
:10074000126803689A430B461A600A1D1268036810
:100750009A430B1D1A60027911440A6803681A4310
:100760000A60184A0832126803689A43154B083326
:100770001A601A1D126803689A43124B0C331A60F0
:100780004279102A0ED11A1F126803681A430D4BC2
:1007900008331A601A1D126803681A43094B0C3398
:1007A0001A600DE00749427911440A6803681A4348
:1007B0000A6005E0027911440A6803689A430A60F6
:1007C00070470000003C0140F0B50A4600210023BC
:1007D000002400BF3DE0012505FA01F3156805EA94
:1007E00003049C4234D105684F000326BE40B54344
:1007F000056015794E00B5400668354305601579EA
:10080000012D02D01579022D16D185684F000326DF
:10081000BE40B543856055794E00B5408668354386
:100820008560456801268E40B543456045689679E8
:100830008E40B6B235434560C5684F000326BE40C2
:10084000B543C560D5794E00B540C6683543C5602F
:10085000491C1029BFD3F0BDF0B5002300244D077B
:10086000ED0E02FA05F3CE1000F1200555F82650E2
:100870004E07F70E0F26BE40B543CF1000F12006FD
:1008800046F82750CE1000F1200555F8265045EACD
:100890000304CE1000F1200545F82640F0BD0246C5
:1008A000002013690B400BB1012000E000207047CD
:1008B000418370470183704710B5AA21064801F0B3
:1008C000B4FA0A20FFF790FEAA21034801F0ADFA1E
:1008D0006420FFF789FE10BD004C004000BFFEE71A
:1008E00001460022022004E00B5C13449AB2431C30
:1008F000D8B2CB789B1C8342F6DCD3439AB2D0B2F9
:100900007047000070B54CF2503604E0761E002EA1
:1009100001DA114870BD01F06BFB0028F6D00F48DA
:10092000FFF7DEFF0D49C978891C0C4A515C8842EB
:1009300002D06FF40060EDE7084804791C2C06D162
:1009400040790649897940EA01252846E2E700BF57
:1009500000BF0020DEE7000000F8FFFF9A00002043
:10096000FEB506460C461546002C00DA0024B4F508
:100970007A7F01DD4FF47A7455208DF801008DF8EF
:1009800000008DF8026007208DF8030001208DF82B
:100990000400E0B28DF80500200A8DF80600E8B2E8
:1009A0008DF8070028128DF808006846FFF798FFB9
:1009B0008DF809000A21684601F002FCFEBD7CB5F5
:1009C000044655208DF801008DF800008DF8024096
:1009D00003208DF803001C208DF804006846FFF703
:1009E0007FFF8DF805000621684601F0E9FBFFF75F
:1009F00089FF054628467CBD00BFFEE77047000022
:100A000070B5002100230F22C4781CB3174C246852
:100A100004F4E064C4F5E064C4F30721C1F1040404
:100A2000E3B20A4144789C40E1B284781440214307
:100A30000C07210E0E4C05786155047804F01F0553
:100A40000124AC4005786D11AD0005F1E025C5F835
:100A5000004109E0047804F01F050124AC40054D75
:100A60000678761145F8264070BD00000CED00E0D8
:100A700000E400E080E100E002490143024A116025
:100A8000704700000000FA050CED00E07047000020
:100A900029B1064A12680243044B1A6004E0034A73
:100AA00012688243014B1A607047000030380240E0
:100AB00029B1064A12680243044B1A6004E0034A53
:100AC00012688243014B1A607047000040380240B0
:100AD00029B1064A12680243044B1A6004E0034A33
:100AE00012688243014B1A607047000020380240B0
:100AF00029B1064A12680243044B1A6004E0034A13
:100B000012688243014B1A6070470000443802406B
:100B100029B1064A12680243044B1A6004E0034AF2
:100B200012688243014B1A6070470000243802406B
:100B3000F0B5002100220024022500260223324FB6
:100B40003F6807F00C0121B1042905D0082937D1ED
:100B500005E02E4F076036E02D4F076033E02A4F47
:100B60003F1F3F68C7F38056274F3F1F3F6807F07E
:100B70003F036EB1264FB7FBF3F7DFF88CC0ACF143
:100B8000040CDCF800C0CCF3881C07FB0CF40CE070
:100B90001E4FB7FBF3F7DFF870C0ACF1040CDCF8C4
:100BA00000C0CCF3881C07FB0CF4174F3F1F3F68B5
:100BB000C7F301477F1C7D00B4FBF5F7076002E037
:100BC000124F076000BF00BF0F4F3F6807F0F001F2
:100BD0000909104F7A5C0768D74047600A4F3F68A1
:100BE00007F4E051890A0B4F7A5C4768D740876069
:100BF000054F3F6807F46041490B064F7A5C476830
:100C0000D740C760F0BD0000083802400024F4005F
:100C100040787D01330000207047000030B500228D
:100C20008B071C0F0F2303FA04F20B4B8C1053F8A5
:100C300024309343084C8D1044F8253023468C1003
:100C400053F824308C07240F00FA04F42343024C99
:100C50008D1044F8253030BD0838014010B52348C8
:100C60000088642825DD214800884FF6FF718842FE
:100C70001FDAEE211E4801F0D8F80A20FFF7B4FC75
:100C8000EE211B4801F0D1F80A20FFF7ADFC19480E
:100C90000178174801F0C9F80A20FFF7A5FC1548AC
:100CA00000880112124801F0C0F80A20FFF79CFCEE
:100CB0001BE0EE210E4801F0B8F80A20FFF794FC83
:100CC000EE210B4801F0B1F80A20FFF78DFCFF215F
:100CD000074801F0AAF80A20FFF786FCFF21044824
:100CE00001F0A3F80A20FFF77FFC10BD20000020D0
:100CF000004800401E0000202DE9F0410446002776
:100D000000254FF6FF70061B2046FFF758FE0746EA
:100D1000BDB2F1B20C4801F088F80A20FFF764FC7C
:100D20003112094801F081F80A20FFF75DFCE9B2B1
:100D3000054801F07AF80A20FFF756FC291202480C
:100D400001F073F8BDE8F0810048004010B50024C0
:100D50000C480078AA2814D10A484078AA2810D153
:100D600000BF0CE00748015D074801F05EF8002075
:100D7000044908550A20FFF737FC601CC4B20A2C4E
:100D8000F0DB10BDAA000020004800401CB5012186
:100D90000220FFF77DFE01208DF8040003208DF86E
:100DA000050000208DF806004FF440700090694661
:100DB0000848FFF709FD69460648FFF705FD4FF4AF
:100DC00080710448FFF774FD4FF400710148FFF78C
:100DD0006FFD1CBD000402400CB500200190009086
:100DE0003448006840F480303249086000BF314820
:100DF000006800F4003000900198401C01900098B9
:100E000018B90198B0F5A04FF1D12A48006800F454
:100E1000003010B10120009001E000200090009807
:100E2000012846D123484030006840F080502149D5
:100E3000403108602048006840F440401E49086086
:100E40001C48083000681B490831086008460068E3
:100E500040F4004008600846006840F4A050086074
:100E60001648091F0860081F006840F08070091FBD
:100E7000086000BF0F48006800F000700028F9D03B
:100E800040F205600E4908600A480830006820F00A
:100E900003000849083108600846006840F0020075
:100EA000086000BF03480830006800F00C00082804
:100EB000F8D10CBD003802400070004019544007C2
:100EC000003C024000B500F057FB00BD30B51548AE
:100ED0000068154AB0FBF2F1481EB0F1807F01D3E3
:100EE00001201BE0481E4FF0E022506150170F22F6
:100EF000002807DA13071D0E0C4B00F00F04241F07
:100F00001D5503E013071C0E094B1C5400BF0020A5
:100F10004FF0E022906107201061002008B100BF6F
:100F2000FEE730BD44000020A086010018ED00E07F
:100F300000E400E010B51548006840F47000134963
:100F400008601348006840F0010011490860002063
:100F50000F49083108600E4800680E4908400C49E6
:100F600008600D48091D0860081F006820F48020F3
:100F7000091F0860002006490C310860FFF72CFFAC
:100F80004FF0006001498039086010BD88ED00E035
:100F900000380240FFFFF6FE1030002430B58BB061
:100FA00004460D4601210220FFF782FD01210220A7
:100FB000FFF76EFD022200213648FFF74DFC0222AA
:100FC00001213448FFF748FC022204213148FFF791
:100FD00043FC022205212F48FFF73EFC33200990F5
:100FE00002208DF8280003208DF8290000208DF8BC
:100FF0002A0001208DF82B0009A92648FFF7E4FB01
:10100000ADF818500020ADF81A000794ADF8200094
:1010100006A9214800F06EFA6020ADF80400012016
:10102000ADF806000020ADF8100040F2DC5003904F
:1010300001A9194800F00CF90821174800F046F9F9
:1010400040F2DC50039001A9134800F049F908214F
:10105000114800F097F90020039001A90E4800F014
:101060009FF908210C4800F0EBF940F2DC500390A6
:1010700001A9094800F0EEF90821074800F026FA16
:101080000121054800F0ACF80121034800F0BAF84E
:101090000BB030BD00040240000400401FB5012128
:1010A0001020FFF705FD5320ADF804004FF47A70CF
:1010B00002900020ADF80600ADF80C0001A911481F
:1010C00000F018FA4FF4C060FFF7D6FC36208DF818
:1010D000000001208DF801008DF802008DF803005A
:1010E0006846FFF78DFC0121064800F08BF80122CD
:1010F0001146044800F0A3F80121024800F07CF8F2
:101100001FBD00000010004010B501210C4800F088
:1011100085F898B101210A4800F071F801210848CA
:1011200000F06AF807480068401C06490860084655
:101130000068B0F5FA6F01D10020086010BD000012
:1011400000100040000000201FB501212020FFF703
:10115000AFFC5320ADF80400642002900020ADF8ED
:101160000600ADF80C0001A9104800F0C3F94FF4D7
:10117000C060FFF781FC37208DF8000001208DF85A
:1011800001008DF802008DF803006846FFF738FC77
:101190000021064800F036F801221146034800F00D
:1011A0004EF80121014800F027F81FBD001400404F
:1011B00010B50121084800F031F860B1012106485E
:1011C00000F01DF80121044800F016F803480068FB
:1011D000401C0249086010BD0014004004000020BB
:1011E00021B1028842F08002028004E002884FF6BA
:1011F0007F731A4002807047CA4302827047CA4315
:101200000282704721B1028842F00102028004E0AC
:1012100002884FF6FE731A400280704730B50246CE
:10122000002000230024158A05EA0103958905EAB8
:10123000010413B10CB1012000E0002030BD1AB14F
:1012400083890B43838102E083898B4383817047C9
:1012500070B5002400220023058C4FF6FE76354041
:101260000584028C8388048B4FF68F752C40B51E45
:101270002C400D882C43751E2A408D892A434D88A9
:101280002A43104DA84202D00F4DA84213D14FF669
:10129000F7752A40CD892A434FF6FB752A408D8881
:1012A0002A434FF6FF652B404FF6FF552B400D8A22
:1012B0002B434D8A2B43838004838D6845630284CE
:1012C00070BD000000000140000401400A460021FA
:1012D000018B4FF6F77319401143018370470000EB
:1012E00070B5002400220023058C4FF6EF763540C0
:1012F0000584028C8388048B48F6FF752C404FF6DA
:10130000FF452C400D884FF6FF7606EA05252C4355
:101310004FF6DF752A408D8906EA05152A434D8868
:1013200006EA05152A43154DA84202D0144DA842DD
:101330001DD14FF67F752A40CD894FF6FF7606EA1C
:1013400005152A434FF6BF752A408D8806EA051514
:101350002A434FF6FF352B404FF2FF752B400D8A85
:1013600006EA85052B434D8A06EA85052B438380D3
:1013700004838D688563028470BD00000000014015
:10138000000401400A460021018B4FF2FF7319400F
:101390004FF6FF7303EA02231943018370470000ED
:1013A00070B5002400220023058C4FF6FF663540FF
:1013B0000584028C8388848B4FF68F752C404FF602
:1013C000FC752C400D882C434FF6FF552A408D8923
:1013D0004FF6FF7606EA05252A434D8806EA0525DD
:1013E0002A43154DA84202D0144DA8421DD14FF2F8
:1013F000FF752A40CD894FF6FF7606EA05252A4378
:101400004FF6FF352A408D8806EA05252A434EF619
:10141000FF752B404DF6FF752B400D8A06EA05152A
:101420002B434D8A06EA05152B43838084838D6800
:10143000C563028470BD000000000140000401404B
:101440000A460021818B4FF6F773194011438183BF
:101450007047000070B5002200230024058C4EF672
:10146000FF7635400584038C8488828B48F6FF75AF
:101470002A404FF6FF452A400D884FF6FF7606EAD0
:1014800005252A434DF6FF752B408D8906EA053563
:101490002B434D8806EA05352B430A4DA84202D05E
:1014A000094DA84208D14BF6FF752C400D8A4FF626
:1014B000FF7606EA85152C43848082838D68056457
:1014C000038470BD00000140000401400A46002171
:1014D000818B4FF2FF7319404FF6FF7303EA02232B
:1014E0001943818370474163704781637047C163CB
:1014F0007047000000220288184B98420ED0184B0B
:1015000098420BD0B0F1804F08D0164B984205D0CE
:10151000154B984202D0154B984204D14FF68F7369
:101520001A404B881A43124B984207D0114B9842ED
:1015300004D04FF6FF431A400B891A4302804B68D0
:10154000C3620B880385054B984202D0044B984236
:1015500001D18B7A0386012383827047000001400A
:10156000000401400004004000080040000C00405E
:1015700000100040001400400448006820B10348F7
:101580000068401E01490860704700002C000020E0
:1015900000B587B001210420FFF77AFA0121C804C1
:1015A000FFF786FA4FF44060059002208DF818008E
:1015B00000208DF81A0003208DF8190001208DF805
:1015C0001B0005A91D48FFF7FFF808220A211B4848
:1015D000FFF742F908220B211848FFF73DF94FF4B5
:1015E000E13000900020ADF80400ADF80600ADF841
:1015F00008000C20ADF80A000020ADF80C00694688
:101600000F4800F0A3FB34208DF8100001208DF866
:10161000110004208DF8120001208DF8130004A899
:10162000FFF7EEF9012240F22551054800F068FB72
:101630000121034800F0B6FA07B000BD00080240DF
:10164000004C004010B540F22551274800F02EFB19
:10165000002847D0244800F0E3FBC4B223480078B8
:10166000D8B9AA2C10D122480078401C2049087013
:1016700008460078022810D10020087001201B497C
:1016800008701C49087008E0002018490870022002
:10169000184908700020164908701448007868B18D
:1016A000154814490978445412480078401C0A210E
:1016B00090FBF1F201FB12000E4908700D48007812
:1016C00080B90A48007868B1002008490870AA204B
:1016D00009490870487009480A6802604A6842600F
:1016E0000989018110BD0000004C0040300000203D
:1016F0003100002032000020B4000020AA000020A9
:1017000000B587B001210846FFF7C2F9012110207A
:10171000FFF7EEF94FF4C060059002208DF8180035
:1017200000208DF81A0003208DF8190001208DF893
:101730001B0005A92048FFF747F8072209211E488A
:10174000FFF78AF807220A211B48FFF785F81B4894
:1017500000F034FA684600F06CFB4FF4E130009082
:101760000020ADF80400ADF80600ADF808000C202C
:10177000ADF80A000020ADF80C0069460F4800F0F3
:10178000E5FA25208DF8100001208DF811000320C6
:101790008DF8120001208DF8130004A8FFF730F92E
:1017A000012240F22551054800F0AAFA0121034820
:1017B00000F0F8F907B000BD000002400010014041
:1017C00010B540F22551314800F070FA00285BD086
:1017D0002E4800F025FBC4B22D480078C8B9552C1E
:1017E00010D12C480078401C2A490870084600781F
:1017F00002280ED1002008700120254908702649D2
:10180000087006E000202249087023490870214929
:1018100008701F480078B8B320481F49097844541D
:101820001D480078032813D11C481B490978405CE7
:101830001B49087008460078032803DB0846007837
:10184000072805DD0320164908700020104908709C
:1018500011480078401C104908700846017810486B
:101860000078C01C81420FD10E48007848B9012091
:101870000C49087008480278921C08490A48FEF78B
:101880009FFC00200249087010BD000000100140BC
:101890001A0000201B0000201D0000208A000020EC
:1018A0001C000020190000209A00002000B587B01D
:1018B00001210846FFF7ECF801214804FFF7F8F88A
:1018C0000C20059002208DF8180000208DF81A00D9
:1018D00003208DF8190001208DF81B0005A921486F
:1018E000FEF772FF072202211E48FEF7B5FF07220E
:1018F00003211C48FEF7B0FF1B4800F05FF9684663
:1019000000F097FA4FF4E13000900020ADF80400A9
:10191000ADF80600ADF808000C20ADF80A00002074
:10192000ADF80C006946104800F010FA26208DF83A
:10193000100001208DF8110002208DF81200012006
:101940008DF8130004A8FFF75BF8012240F225513F
:10195000054800F0D5F90121034800F023F907B04C
:1019600000BD0000000002400044004010B540F2FD
:1019700025512A4800F09AF900284CD0274800F059
:101980004FFAC4B226480078D0B9592C11D1254855
:101990000078401C234908700846007802280FD1BF
:1019A0000020087001201E49087000201E490870A0
:1019B00010BD00201A4908701B49087019490870A9
:1019C0001748007870B119481749097844541649E6
:1019D0000978481CC11700EB5171C910A0EBC10177
:1019E000114A117010480078A8B90D48007890B1DC
:1019F00000200B4908700D4800780C49497840EAEE
:101A000001200B490880094880780849C97840EAD4
:101A100001200849088000BFCAE7000000440040D8
:101A2000290000202A0000202B0000202200002096
:101A30001E0000202000002000B587B001210220F8
:101A4000FFF726F801218804FFF732F80121480545
:101A5000FFF71EF84FF44060059002208DF8180043
:101A600000208DF81A0003208DF8190001208DF850
:101A70001B0005A92048FEF7A7FE07220A211E48E1
:101A8000FEF7EAFE07220B211B48FEF7E5FE1B4886
:101A900000F094F8684600F0CCF94FF4E130009083
:101AA0000020ADF80400ADF80600ADF808000C20E9
:101AB000ADF80A000020ADF80C0069460F4800F0B0
:101AC00045F927208DF8100000208DF811008DF8C1
:101AD000120001208DF8130004A8FEF791FF0122E7
:101AE00040F22551054800F00BF90121034800F0B0
:101AF00059F807B000BD0000000402400048004053
:101B000010B540F22551174800F0D0F840B31649FF
:101B10000968164A1268881A002801DB014600E0AD
:101B200041420A2902DD0020114908700E48006870
:101B30000E4908600B4800F073F9C4B20D480C4917
:101B4000097844540A480078401C0949087008463E
:101B500000781E2804D10020087001200649087072
:101B600010BD0000004800400000002010000020D0
:101B70000F000020580000200E00002010B50024A7
:101B800040F22551064800F091F838B1044800F0C1
:101B900047F9C4B2611C024800F047F910BD0000CB
:101BA0000014014021B1828942F40052828104E094
:101BB00082894DF6FF731A408281704710B5044642
:101BC0003248844208D101211020FEF7A1FF0021F4
:101BD0001020FEF79DFF57E02D48844209D10121D6
:101BE0004804FEF775FF00214FF40030FEF770FF48
:101BF0004AE02848844209D101218804FEF768FFA1
:101C000000214FF48020FEF763FF3DE0224884422C
:101C100009D10121C804FEF75BFF00214FF4002029
:101C2000FEF756FF30E01D48844209D10121080526
:101C3000FEF74EFF00214FF48010FEF749FF23E02E
:101C40001748844208D101212020FEF761FF0021BE
:101C50002020FEF75DFF17E01248844209D10121E0
:101C60008807FEF735FF00214FF08040FEF730FF78
:101C70000AE00D48844207D101214005FEF728FF04
:101C800000216005FEF724FF10BD00000010014098
:101C90000044004000480040004C0040005000401C
:101CA0000014014000780040007C004070B50246FE
:101CB000002400230025002040F66A16B14200D11E
:101CC00000BFC1F3421501F01F03012606FA03F31A
:101CD000012D02D19689334006E0022D02D1168AE9
:101CE000334001E0968A33400C12012606FA04F4D0
:101CF0001688344013B10CB1012000E0002070BD03
:101D0000F0B50346002400260025002040F66A179F
:101D1000B94200D100BF1846C1F3421401F01F06BA
:101D2000012707FA06F5012C01D10C3004E0022C42
:101D300001D1103000E014301AB107682F4307605A
:101D400002E00768AF430760F0BD00002DE9FF47E0
:101D500005460E460024A14600BFA046B08900B14A
:101D600000BF2C8A24F44054F08804432C82AC89B0
:101D700041F20C608443B08831890843718908437B
:101D80000443AC81AC8A24F44074B0890443AC822F
:101D90006846FEF7CDFE2048854202D01F488542A6
:101DA00002D1DDF80C9001E0DDF80890A88900F47C
:101DB000004040B109EBC90000EB0910316849004F
:101DC000B0FBF1F707E009EBC90000EB091031683F
:101DD0008900B0FBF1F76420B7FBF0F004012009A3
:101DE000642101FB1078A88900F4004040B1322042
:101DF00000EBC800B0FBF1F000F00700044308E07E
:101E0000322000EB08106421B0FBF1F000F00F006D
:101E100004432C81BDE8FF870010014000140140FD
:101E200001468888C0F308007047C1F30802828029
:101E300070474FF41651016000218180C1800181FB
:101E40000C21418100218181704700BFFEE702E043
:101E500008C8121F08C1002AFAD170477047002035
:101E600001E001C1121F002AFBD1704710B50178B3
:101E7000DD293ED14178DD293BD1017F222938D1AE
:101E8000417F222935D10021002200BF022209E032
:101E9000845C531CC35C44EA0323164C24F81130C1
:101EA000491C121D0529F3DB0021042209E0845C92
:101EB000531CC35C44EA03230F4C24F81130491C23
:101EC000121D0529F3DB837D0C4C2370C37D047E3A
:101ED00043EA04230A4C2380437E847E43EA04239E
:101EE000074C6380074B1B7813B1C37E064C2370ED
:101EF00000BF10BD760000208000002008000020F8
:101F00000A0000200E0000200900002070B50446E1
:101F10000D4629460348FFF7E6FA21460148FFF738
:101F2000E4FA70BD0004004010B504210948FEF732
:101F3000C1FC08210748FEF7BBFC44F620610648B7
:101F4000FFF7D5FA4CF25030FEF74EFB00F03EF8AA
:101F500010BD0000000802400004004010B5084811
:101F60000078112802D1FFF7DFFF08E0044800786D
:101F7000222802D100F04AF801E000F027F810BD55
:101F8000080000201CB501210420FEF781FD01207E
:101F90008DF8040003208DF8050000208DF8060060
:101FA0000C20009069460848FEF70EFC694606487A
:101FB000FEF70AFC04210448FEF77AFC08210248D7
:101FC000FEF776FC1CBD00000008024010B504219D
:101FD0000548FEF76DFC08210348FEF769FC002167
:101FE0000248FFF784FA10BD0008024000040040D8
:101FF00005480078012804D1002003490870012019
:1020000070470020FCE700001900002010B50421F3
:102010000948FEF74DFC08210748FEF74BFC44F643
:1020200020610648FFF763FA4CF25030FEF7DCFA05
:10203000FFF7CCFF10BD0000000802400004004084
:102040001D212348FEF7D5F8FEF740FF0020214967
:102050000860FFF723F8FFF7EFFCFFF727FCFFF717
:102060004FFBFFF78FFFFFF76FF8532144F61F6018
:10207000FEF794FF00F0D8F8FEF788FEFFF788FA25
:1020800025E0144800680A21B0FBF1F201FB1200C0
:1020900038B90F48FFF7EAFE0F4A11885088FFF75A
:1020A00035FF0C4800681421B0FBF1F201FB12006F
:1020B00018B9FEF77FFA00F011F8064800686421AD
:1020C000B0FBF1F201FB120008B9FFF747FFD8E7B8
:1020D00058000020000000200A00002010B53648FB
:1020E000007800F0010038B1FEF7B8FD3248007802
:1020F00000F0FE00304908702F48007800F0020020
:10210000022808D10120FEF7F7FD2B48007800F0E7
:10211000FD00294908702848007800F004000428D0
:1021200008D10220FEF7E8FD2348007800F0FB000C
:10213000214908702048007800F00800082808D1DC
:102140000320FEF7D9FD1C48007800F0F7001A497B
:1021500008701948007800F01000102808D10420F9
:10216000FEF7CAFD1448007800F0EF00124908702D
:102170001148007800F02000202808D10520FEF743
:10218000BBFD0D48007800F0DF000B4908700A48DD
:10219000007800F04000402809D1FEF78DFBFEF7E3
:1021A000D5FD0548007800F0BF0003490870002005
:1021B0000249087010BD0000090000200E00002038
:1021C00070B504460D464FF400711548FEF772FBDA
:1021D0004FF480711248FEF76BFB0A20FEF704FAF9
:1021E0000BE000BF0F48008800F040000028F9D045
:1021F00014F8011B0B48FFF718FE2800A5F1010198
:10220000CDB2EED10A20FEF7EFF94FF40071044889
:10221000FEF74EFB4FF480710148FEF74BFB70BD9B
:10222000000402400010014000B585B001211020DB
:10223000FEF72EFC01218803FEF75AFC02200390D2
:1022400001208DF8100003208DF8110000208DF87A
:10225000120003A91B48FEF7B7FA012003900020E3
:102260008DF8100003208DF8110003A91548FEF722
:10227000ABFA00210420FEF7D1FC0120FEF748FA5A
:1022800000208DF8080008208DF809000120019039
:102290008DF80A0001A8FEF74DFA06208DF800001F
:1022A00001208DF8010002208DF8020001208DF838
:1022B00003006846FEF7A4FB02210248FEF7F8FA85
:1022C00005B000BD00100240E82200080000002018
:1022D000580000004E1E000840230008580000204F
:1022E000680400005E1E00080000000000000000FE
:1022F00000000000000000000000000000000000DE
:1023000000000000020000000000000000000000CB
:1023100000000000000000000000000000000001BC
:10232000020304010203040607080900007A030AF5
:102330000000000000000000010203040607080975
:040000050800018965
:00000001FF
